:020000040000FA
:100000000C944D010C9475010C9475010C947501C0
:100010000C9475010C9475010C9475010C94750188
:100020000C9475010C9475010C9475010C94750178
:100030000C9475010C9475010C9475010C94750168
:100040000C94B5050C9475010C9425060C94FF05D1
:100050000C9475010C9475010C9475010C94750148
:100060000C9475010C947501000000000000005F05
:1000700000000007000700147F147F14242A7F2A41
:10008000122313086462364955225000050300000C
:10009000001C2241000041221C0014083E081408E4
:1000A000083E0808005030000008080808080060F2
:1000B00060000020100804023E5149453E00427F86
:1000C000400042615149462141454B311814127F8D
:1000D0001027454545393C4A494930017109050316
:1000E0003649494936064949291E0036360000007E
:1000F0005636000008142241001414141414004150
:100100002214080201510906324979413E7E11113B
:10011000117E7F494949363E414141227F4141227A
:100120001C7F494949417F090909013E4149497AF2
:100130007F0808087F00417F41002040413F017F48
:10014000081422417F404040407F020C027F7F0420
:1001500008107F3E4141413E7F090909063E415159
:10016000215E7F09192946464949493101017F012C
:10017000013F4040403F1F2040201F3F4038403F4C
:100180006314081463070870080761514945430068
:100190007F41410002040810200041417F00040219
:1001A0000102044040404040000102040020545439
:1001B00054787F48444438384444442038444448C0
:1001C0007F3854545418087E0901020C5252523E92
:1001D0007F0804047800447D40002040443D007FB7
:1001E0001028440000417F40007C041804787C08FB
:1001F00004047838444444387C1414140808141453
:10020000187C7C080404084854545420043F44409B
:10021000203C4040207C1C2040201C3C4030403C86
:1002200044281028440C5050503C4464544C440022
:100230000836410000007F00000041360800100829
:100240000810080000000000000000002400270043
:100250002A0000000000250028002B0004040404EC
:100260000404040402020202020203030303030360
:10027000010204081020408001020408102001023D
:100280000408102000000008000201000003040719
:100290000000000000000000570611241FBECFEF31
:1002A000D8E0DEBFCDBF11E0A0E0B1E0E8ECFCE1BA
:1002B00002C005900D92AE34B107D9F722E0AEE44A
:1002C000B1E001C01D92A638B207E1F711E0CDE41C
:1002D000D1E004C02197FE010E945C0ECC34D1070E
:1002E000C9F70E9496060C94620E0C94000090E0F0
:1002F000FC01EC57FD4F2491FC01E059FD4F349176
:10030000FC01E45AFD4FE491EE23C9F0222339F0B9
:10031000233001F1A8F4213019F1223029F1F0E065
:10032000EE0FFF1FEE5AFD4FA591B4918FB7F894D1
:10033000EC91611126C030953E233C938FBF089508
:100340002730A9F02830C9F0243049F78091800087
:100350008F7D03C0809180008F7780938000DFCFF6
:1003600084B58F7784BDDBCF84B58F7DFBCF809143
:10037000B0008F778093B000D2CF8091B0008F7D96
:10038000F9CF3E2BDACFCF93DF9390E0FC01E05919
:10039000FD4F2491845A9D4FFC0184918823D1F014
:1003A00090E0880F991FFC01E85BFD4FA591B49187
:1003B000FC01EE5AFD4FC591D49161110EC09FB75B
:1003C000F8948C91E22FE0958E238C932881E22380
:1003D000E8839FBFDF91CF9108958FB7F894EC9198
:1003E000E22BEC938FBFF6CF8E3008F08E508770E3
:1003F000806480937C0080917A00806480937A008E
:1004000080917A0086FDFCCF8091780090917900F0
:1004100008953FB7F8948091970190919801A09129
:100420009901B0919A0126B5A89B05C02F3F19F0FC
:100430000196A11DB11D3FBFBA2FA92F982F882764
:10044000BC01CD01620F711D811D911D42E0660F3F
:10045000771F881F991F4A95D1F708958F929F9211
:10046000AF92BF92CF92DF92EF92FF924B015C016D
:100470000E9409026B017C010E9409026C197D092E
:100480008E099F09683E734081059105A8F321E01C
:10049000821A9108A108B10888EEC80E83E0D81E20
:1004A000E11CF11C81149104A104B10429F7FF900F
:1004B000EF90DF90CF90BF90AF909F908F90089576
:1004C000AF92BF92CF92DF92EF92FF920F931F9362
:1004D000CF93DF936C017B018B01040F151FEB01A0
:1004E0005E01AE18BF08C017D10759F06991D60157
:1004F000ED91FC910190F081E02DC6010995892BC9
:1005000079F7C501DF91CF911F910F91FF90EF9087
:10051000DF90CF90BF90AF900895FC01538D448D34
:10052000252F30E0842F90E0821B930B541710F09E
:10053000CF96089501970895FC01918D828D9817AB
:1005400061F0A28DAE0FBF2FB11D5D968C91928D83
:100550009F5F9F73928F90E008958FEF9FEF0895B4
:10056000FC01918D828D981731F0828DE80FF11D7D
:10057000858D90E008958FEF9FEF0895FC01918D98
:10058000228D892F90E0805C9F4F821B91098F7391
:10059000992708958BE991E00E94BE0221E0892B02
:1005A00009F420E0822F089580E090E0892B29F063
:1005B0000E94CA0281110C9400000895FC01A48DD0
:1005C000A80FB92FB11DA35ABF4F2C91848D90E075
:1005D00001968F739927848FA689B7892C93A08958
:1005E000B1898C91837080648C93938D848D9813E2
:1005F00006C00288F389E02D80818F7D8083089575
:10060000EF92FF920F931F93CF93DF93EC0181E062
:10061000888F9B8D8C8D98131AC0E889F989808109
:1006200085FF15C09FB7F894EE89FF896083E8893C
:10063000F98980818370806480839FBF81E090E02E
:10064000DF91CF911F910F91FF90EF900895F62EBB
:100650000B8D10E00F5F1F4F0F731127E02E8C8D55
:100660008E110CC00FB607FCFACFE889F98980819A
:1006700085FFF5CFCE010E94DE02F1CFEB8DEC0FAE
:10068000FD2FF11DE35AFF4FF0829FB7F8940B8FB7
:10069000EA89FB8980818062CFCFCF93DF93EC0121
:1006A000888D8823B9F0AA89BB89E889F9898C915A
:1006B00085FD03C0808186FD0DC00FB607FCF7CF16
:1006C0008C9185FFF2CF808185FFEDCFCE010E9416
:1006D000DE02E9CFDF91CF910895089590E080E0A8
:1006E0000895FB0101900020E9F73197AF01461B07
:1006F000570BDC01ED91FC910280F381E02D099410
:100700008F929F92AF92BF92EF92FF920F931F939F
:10071000CF93DF93CDB7DEB7A1970FB6F894DEBFC6
:100720000FBECDBF7C01FA01CB0119A2223008F423
:100730002AE08E010F5D1F4F822E912CB12CA12C2F
:10074000BF01A50194010E94260EF901CA016A3079
:100750000CF5605DD8016E938D01232B242B252B86
:1007600079F790E080E0109721F0BD01C7010E9469
:100770007103A1960FB6F894DEBF0FBECDBFDF9117
:10078000CF911F910F91FF90EF90BF90AF909F90EE
:100790008F900895695CDECFCF93DF93BC018BE926
:1007A00091E00E947103EC016EE171E08BE991E050
:1007B0000E9471038C0F9D1FDF91CF9108950C94BF
:1007C00071032F923F924F925F926F927F928F921E
:1007D0009F92AF92BF92CF92DF92EF92FF921F93C0
:1007E000CF93DF93EC016A017B01722EAB0196017E
:1007F000CB01B6010E940D0E61E271E0811126C0AD
:1008000046015701E894B7F82FEF3FEF4FE75FE756
:10081000C501B4010E940D0E81110CC02FEF3FEFF6
:100820004FE75FE7C501B4010E94430C65E271E048
:10083000181664F02FEF3FEF4FE75FE4C701B601F2
:100840000E949B0D1816B4F469E271E0CE01DF91AD
:10085000CF911F91FF90EF90DF90CF90BF90AF901E
:100860009F908F907F906F905F904F903F902F90D0
:100870000C9471032FEF3FEF4FE75FECC701B60118
:100880000E94430C87FDE0CF20E030E0A901C701C2
:10089000B6010E94430C312C212C87FF0DC0E8814A
:1008A000F9810190F081E02D6DE2CE0109951C01E6
:1008B000F7FAF094F7F8F09410E060E070E080E070
:1008C0009FE3711641F020E030E040E251E40E94E5
:1008D000480C1F5FF6CFA70196010E94D70B2B0192
:1008E0003C010E94BA0C4B015C012AE0BC01A4014E
:1008F000CE010E9480037C01E20CF31C1123E1F184
:10090000C501B4010E94E90C9B01AC01C301B20115
:100910000E94D60B4B015C01E881F9810190F081C6
:10092000E02D6EE2CE010995E80EF91E115020F17E
:1009300020E030E040E251E4C501B4010E94A00D86
:100940002B013C010E94BA0C4B01B12CA12C2AE0D6
:10095000B501A401CE010E948003E80EF91EC50175
:10096000B4010E94E90C9B01AC01C301B2010E94D9
:10097000D60B4B015C01DACFC701DF91CF911F91FC
:10098000FF90EF90DF90CF90BF90AF909F908F90AF
:100990007F906F905F904F903F902F900895EF92CF
:1009A000FF920F931F93CF93DF93EC01042F8E815F
:1009B0000E94770160E088850E947701FC80ED80CD
:1009C00018E0602F661F6627661F8E2D0E94770134
:1009D000000F61E08F2D0E94770160E08F2D0E9453
:1009E0007701115071F761E08885DF91CF911F91F8
:1009F0000F91FF90EF900C947701CF93DF93C8E3B2
:100A0000D2E01C8690E06B8529E3629F612D112462
:100A1000669570E06F5F7F4F0E94120E8D8740E8F1
:100A200060E0CE010E94CF044D85406460E0CE01BD
:100A3000DF91CF910C94CF04CF93DF9380E00E949D
:100A4000FD04D0E0C0E080914302869586958695AE
:100A500090914202899FC0011124C817D90740F420
:100A600040E061E088E392E00E94CF042196EBCF62
:100A700080E0DF91CF910C94FD04CF92DF92EF9252
:100A8000FF920F931F93CF93DF9300D000D01F925C
:100A9000CDB7DEB767FD66C07C01862F90E060327F
:100AA00008F44FC0809725E0289FB001299F700D62
:100AB000112468597F4F45E050E0CE0101960E9415
:100AC000CD0B8E010F5F1F4F680185E0C80ED11C52
:100AD000F80141918F0161E0C7010E94CF040C151C
:100AE0001D05B1F740E061E0C7010E94CF04F701A6
:100AF000848590E00696628570E00E94120E8487DD
:100B0000892B79F4858590E00196638529E3629FBE
:100B1000612D1124669570E06F5F7F4F0E94120E69
:100B2000858781E090E00F900F900F900F900F90CD
:100B3000DF91CF911F910F91FF90EF90DF90CF90B9
:100B40000895FC013796EE0FFF1FEE0DFF1D00818B
:100B500011810115110509F0B7CF45E050E068E6B5
:100B600070E0ABCF90E080E0DECF1F920F920FB627
:100B70000F9211242F933F938F939F93AF93BF9323
:100B80008091930190919401A0919501B09196016B
:100B90003091920123E0230F2D3758F50196A11DC6
:100BA000B11D209392018093930190939401A0939F
:100BB0009501B09396018091970190919801A09131
:100BC0009901B0919A010196A11DB11D80939701E1
:100BD00090939801A0939901B0939A01BF91AF911E
:100BE0009F918F913F912F910F900FBE0F901F906B
:100BF000189526E8230F0296A11DB11DD2CF1F9292
:100C00000F920FB60F9211242F933F934F935F9340
:100C10006F937F938F939F93AF93BF93EF93FF93C4
:100C20008BE991E00E94DE02FF91EF91BF91AF91BD
:100C30009F918F917F916F915F914F913F912F91F4
:100C40000F900FBE0F901F9018951F920F920FB626
:100C50000F9211242F938F939F93EF93FF93E09123
:100C6000AB01F091AC018081E091B101F091B20152
:100C700082FD1BC090818091B4018F5F8F732091A2
:100C8000B501821741F0E091B401F0E0E556FE4F66
:100C9000958F8093B401FF91EF919F918F912F9148
:100CA0000F900FBE0F901F9018958081F4CFEBE945
:100CB000F1E01382128288EE93E0A0E0B0E084833A
:100CC0009583A683B78384E091E09183808385EC4C
:100CD00090E09587848784EC90E09787868780EC06
:100CE00090E0918B808B81EC90E0938B828B82ECF7
:100CF00090E0958B848B86EC90E0978B868B118EA1
:100D0000128E138E148EE8E3F2E01382128286E1D3
:100D100091E09183808383E0848384E0858385E010
:100D2000868386E0878387E080870895CF93DF936B
:100D3000CDB7DEB728970FB6F894DEBF0FBECDBF94
:100D4000789484B5826084BD84B5816084BD85B5A6
:100D5000826085BD85B5816085BD80916E008160B2
:100D600080936E0010928100809181008260809358
:100D7000810080918100816080938100809180005A
:100D80008160809380008091B10084608093B10085
:100D90008091B00081608093B00080917A0084607F
:100DA00080937A0080917A00826080937A008091AB
:100DB0007A00816080937A0080917A0080688093C5
:100DC0007A001092C10080E090E0A0E2B1E480934C
:100DD0004E0190934F01A0935001B093510180E0D8
:100DE00090E0A0E8BFE38093520190935301A09359
:100DF0005401B09355011092560110925701109270
:100E000058011092590161E083E00E94C30161E042
:100E100084E00E94C30161E085E00E94C30161E0BB
:100E200086E00E94C30161E087E00E94C30161E0A7
:100E30008AE00E94C30161E088E00E94C30160E093
:100E400089E00E94C30110929101109290011092CA
:100E50008F0110928E011092620110926301109224
:100E600064011092650110926E0110926F01109250
:100E70007001109271011092660110926701109238
:100E800068011092690110925A0110925B01109250
:100E90005C0110925D0110926A0110926B01109238
:100EA0006C0110926D0184E58093420280E380938F
:100EB0004302109241021092440210924502E6E46D
:100EC000F2E080E4DF011D928A95E9F761E080910C
:100ED0003C020E94C30161E080913D020E94C30177
:100EE00061E080913E020E94C30161E080913F0277
:100EF0000E94C30161E0809140020E94C30161E051
:100F000080913F020E94770161E0809140020E943F
:100F1000770160E080913F020E94770164E670E013
:100F200080E090E00E942E0261E080913F020E94EA
:100F3000770141E260E088E392E00E94CF0443E160
:100F400060E088E392E00E94CF048091410242EC8D
:100F5000813039F440EE60E088E392E00E94CF04F3
:100F600045E060E088E392E00E94CF0440E260E068
:100F700088E392E00E94CF0449E060E088E392E0D9
:100F80000E94CF040E941C0548E060E088E392E0E4
:100F90000E94CF044CE060E088E392E00E94CF041E
:100FA00064E670E080E090E00E942E0240E860E09D
:100FB00088E392E00E94CF0440E460E088E392E09E
:100FC0000E94CF04E091AB01F091AC0182E08083FC
:100FD000E091A701F091A8011082E091A901F091A0
:100FE000AA018FEC80831092B301E091AF01F091E0
:100FF000B00186E08083E091AD01F091AE01808187
:1010000080618083E091AD01F091AE0180818860C4
:101010008083E091AD01F091AE0180818068808392
:10102000E091AD01F091AE0180818F7D80838EE0F3
:101030000E94F4012CE0AC01249FC001259F900D7B
:10104000112468EE73E00E94120E625E7F4F072E3D
:10105000000C880B990B0E94EB0C6093820170933B
:101060008301809384019093850100E010E028ECD7
:1010700031E400935A0110935B0120935C0130939B
:101080005D01A90198010E94D60B6B017C01C09201
:101090005E01D0925F01E0926001F09261012091C7
:1010A00062013091630140916401509165010E9499
:1010B000D70B2B013C014092620150926301609278
:1010C00064017092650120916E0130916F01409131
:1010D000700150917101C701B6010E94D60B4B01FE
:1010E0005C018092660190926701A0926801B092C3
:1010F000690120914E0130914F0140915001509172
:101100005101C701B6010E94A00D69837A838B83C8
:101110009C83209152013091530140915401509190
:101120005501C301B2010E94A00D9B01AC01698170
:101130007A818B819C810E94D70B2B013C012091ED
:101140005601309157014091580150915901C50104
:10115000B4010E94A00D9B01AC01C301B2010E9429
:10116000D70B4B015C0180926A0190926B01A092B7
:101170006C01B0926D0120E030E04FE753E40E9433
:101180009B0D18160CF0D2C180E090E0AFE7B3E4FD
:1011900080936A0190936B01A0936C01B0936D01F1
:1011A000C0926E01D0926F01E0927001F0927101D5
:1011B00080916A0190916B01A0916C01B0916D01D9
:1011C00080938A0190938B01A0938C01B0938D0141
:1011D00088EE282E83E0382E00E010E082E10E94A5
:1011E000F401909391018093900183E10E94F401B6
:1011F00090938F0180938E010E941C0580908A013C
:1012000090908B01A0908C01B0908D0180917A011B
:1012100081110FC080E090E0A8ECB1E480937601EA
:1012200090937701A0937801B093790191E0909326
:101230007A018FB7F8944091930150919401609195
:101240009501709196018FBF809172019091730109
:10125000A0917401B0917501481B590B6A0B7B0B6F
:10126000443651056105710508F462C08C599F4FE1
:10127000AF4FBF4F8093720190937301A09374019D
:10128000B0937501C0907601D0907701E09078011D
:10129000F090790120E030E040EA51E4C501B4016A
:1012A0000E94A00D20E030E04FE753E40E94480C7C
:1012B00020E030E048EC52E40E94A00D20E030E055
:1012C0004AE754E40E94480C20E030E040E251E458
:1012D0000E94480C2AE037ED43E65FE30E94480C89
:1012E000A70196010E94D70B4B015C0120E030E082
:1012F00048EC51E4C701B6010E94D60B27E137EB59
:1013000041ED58E30E94A00D20E030E040EA50E4B7
:101310000E94A00D9B01AC01C501B4010E94D60B37
:1013200060937601709377018093780190937901AF
:10133000409076015090770160907801709079012B
:1013400040928601509287016092880170928901D3
:101350008EE00E94F4012CE0DC012A9FC0012B9F4B
:10136000900D1124B1010E94120E625E7F4F072E74
:10137000000C880B990B0E94EB0C6B017C012091F7
:1013800082013091830140918401509185010E9436
:10139000430C882309F4B5C0C0928201D092830126
:1013A000E0928401F092850140925A0150925B01D3
:1013B00060925C0170925D01A3019201C701B601C8
:1013C0000E94D60B6B017C01C0925E01D0925F013E
:1013D000E0926001F092610120916201309163011D
:1013E00040916401509165010E94D70B4B015C0153
:1013F0008092620190926301A0926401B0926501B3
:1014000020916E0130916F014091700150917101F6
:10141000C701B6010E94D60B69837A838B839C83B4
:1014200060936601709367018093680190936901EE
:1014300020914E0130914F01409150015091510146
:10144000C701B6010E94A00D6D837E838F839887AC
:101450002091520130915301409154015091550116
:10146000C501B4010E94A00D9B01AC016D817E817C
:101470008F8198850E94D70B4B015C01209156010A
:1014800030915701409158015091590169817A81F9
:101490008B819C810E94A00D9B01AC01C501B40110
:1014A0000E94D70B4B015C0120E030E04FE753E492
:1014B0000E949B0D18160CF04BC080E090E0AFE747
:1014C000B3E480936A0190936B01A0936C01B09395
:1014D0006D01C0926E01D0926F01E0927001F092A6
:1014E000710180916A0190916B01A0916C01B091A2
:1014F0006D0180938A0190938B01A0938C01B0932E
:101500008D0120E030E040EF51E4C301B2010E94C0
:10151000430C87FF38C061E08AE00E94770160E0F9
:1015200089E00E94770160E088E042C020E030E07E
:10153000A901C501B4010E94430C87FF31CE10926E
:101540006A0110926B0110926C0110926D0128CE0D
:1015500020E030E0A901C501B4010E94430C87FDE1
:1015600009C080926A0190926B01A0926C01B092C6
:101570006D01AFCF10926A0110926B0110926C0155
:1015800010926D01A6CF20E030E048E252E4C301A2
:10159000B2010E949B0D18160CF0E3C061E088E0D8
:1015A0000E94770160E08AE00E94770160E089E0B4
:1015B0000E9477018091900190919101892B09F40B
:1015C00066C0C0908A01D0908B01E0908C01F090B1
:1015D0008D018090820190908301A0908401B09051
:1015E000850180E00E94FD046DE271E088E392E0F5
:1015F0000E94DF0322E0B501A40188E392E00E948B
:10160000E10363E371E088E392E00E94DF0381E09D
:101610000E94FD0467E371E088E392E00E94DF032B
:1016200020E030E040EA51E4C701B6010E94A00D7D
:1016300020E030E04FE753E40E94480CAB01BC01CE
:1016400022E088E392E00E94E10364E371E088E332
:1016500092E00E94DF0382E00E94FD046FE371E0EC
:1016600088E392E00E94DF0322E0B301A20188E355
:1016700092E00E94E10365E471E088E392E00E9459
:10168000DF036AE471E088E392E00E94DF03809167
:101690008E0190918F01892B09F451C0C090860171
:1016A000D0908701E0908801F090890180908A01B4
:1016B00090908B01A0908C01B0908D0140908201A0
:1016C0005090830160908401709085018BE991E0D6
:1016D0000E94BE0297FF33C06DE271E08BE991E09A
:1016E0000E94DF0322E0B301A2018BE991E00E9496
:1016F000E10383E391E00E94CC0367E371E08BE9AF
:1017000091E00E94DF0322E0B501A4018BE991E0A2
:101710000E94E10384E391E00E94CC036FE371E057
:101720008BE991E00E94DF0322E0B701A6018BE97B
:1017300091E00E94E10385E491E00E94CC036AE01D
:1017400070E080E090E00E942E020115110509F47E
:1017500045CD0E94CA02882309F440CD0E940000B2
:101760003DCD20E030E048E252E4C301B2010E94E6
:10177000430C18160CF41ECF20E030E040EF51E48B
:10178000C301B2010E949B0D87FD14CF61E089E087
:101790000E94770160E08AE0C4CEFB01DC0102C058
:1017A00005900D9241505040D8F708955058BB27EE
:1017B000AA270E94EE0B0C94610D0E94530D38F085
:1017C0000E945A0D20F039F49F3F19F426F40C942E
:1017D000500D0EF4E095E7FB0C944A0DE92F0E94A2
:1017E000720D58F3BA17620773078407950720F044
:1017F00079F4A6F50C94940D0EF4E0950B2EBA2F07
:10180000A02D0B01B90190010C01CA01A001112406
:10181000FF27591B99F0593F50F4503E68F11A16B2
:10182000F040A22F232F342F4427585FF3CF469543
:1018300037952795A795F0405395C9F77EF41F1665
:10184000BA0B620B730B840BBAF09150A1F0FF0F2F
:10185000BB1F661F771F881FC2F70EC0BA0F621F1B
:10186000731F841F48F4879577956795B795F7950B
:101870009E3F08F0B0CF9395880F08F09927EE0FA0
:101880009795879508950E94260D08F481E00895A4
:101890000E945C0C0C94610D0E945A0D58F00E943D
:1018A000530D40F029F45F3F29F00C944A0D51117B
:1018B0000C94950D0C94500D0E94720D68F39923B1
:1018C000B1F3552391F3951B550BBB27AA2762173C
:1018D0007307840738F09F5F5F4F220F331F441F49
:1018E000AA1FA9F335D00E2E3AF0E0E832D091507D
:1018F0005040E695001CCAF72BD0FE2F29D0660F6A
:10190000771F881FBB1F261737074807AB07B0E8AC
:1019100009F0BB0B802DBF01FF2793585F4F3AF0B2
:101920009E3F510578F00C944A0D0C94950D5F3F45
:10193000E4F3983ED4F3869577956795B795F79538
:101940009F5FC9F7880F911D9695879597F9089520
:10195000E1E0660F771F881FBB1F621773078407BC
:10196000BA0720F0621B730B840BBA0BEE1F88F7CB
:10197000E09508950E947A0D88F09F5798F0B92F4E
:101980009927B751B0F0E1F0660F771F881F991FB4
:101990001AF0BA95C9F714C0B13091F00E94940DB5
:1019A000B1E008950C94940D672F782F8827B85FC5
:1019B00039F0B93FCCF3869577956795B395D9F70C
:1019C0003EF490958095709561957F4F8F4F9F4F16
:1019D0000895E89409C097FB3EF490958095709522
:1019E00061957F4F8F4F9F4F9923A9F0F92F96E96B
:1019F000BB279395F695879577956795B795F111E0
:101A0000F8CFFAF4BB0F11F460FF1BC06F5F7F4F7C
:101A10008F4F9F4F16C0882311F096E911C077238E
:101A200021F09EE8872F762F05C0662371F096E897
:101A3000862F70E060E02AF09A95660F771F881F66
:101A4000DAF7880F9695879597F90895990F00080A
:101A5000550FAA0BE0E8FEEF16161706E807F90780
:101A6000C0F012161306E407F50798F0621B730B1B
:101A7000840B950B39F40A2661F0232B242B252B9C
:101A800021F408950A2609F4A140A6958FEF811D3F
:101A9000811D089597F99F6780E870E060E00895E0
:101AA0009FEF80EC089500240A9416161706180676
:101AB0000906089500240A94121613061406050652
:101AC0000895092E0394000C11F4882352F0BB0FE3
:101AD00040F4BF2B11F460FF04C06F5F7F4F8F4F46
:101AE0009F4F089557FD9058440F551F59F05F3F81
:101AF00071F04795880F97FB991F61F09F3F79F030
:101B000087950895121613061406551FF2CF4695B1
:101B1000F1DF08C0161617061806991FF1CF869533
:101B20007105610508940895E894BB276627772717
:101B3000CB0197F908950E94260D08F48FEF0895C0
:101B40000E94B30D0C94610D0E94530D38F00E9459
:101B50005A0D20F0952311F00C944A0D0C94500D61
:101B600011240C94950D0E94720D70F3959FC1F392
:101B7000950F50E0551F629FF001729FBB27F00D3B
:101B8000B11D639FAA27F00DB11DAA1F649F662790
:101B9000B00DA11D661F829F2227B00DA11D621FDF
:101BA000739FB00DA11D621F839FA00D611D221F99
:101BB000749F3327A00D611D231F849F600D211D7D
:101BC000822F762F6A2F11249F5750409AF0F1F000
:101BD00088234AF0EE0FFF1FBB1F661F771F881F69
:101BE00091505040A9F79E3F510580F00C944A0D4A
:101BF0000C94950D5F3FE4F3983ED4F3869577956A
:101C00006795B795F795E7959F5FC1F7FE2B880F0E
:101C1000911D9695879597F908950E94260D880B3A
:101C2000990B089597FB072E16F4009407D077FDC3
:101C300009D00E94480E07FC05D03EF4909581958E
:101C40009F4F0895709561957F4F0895A1E21A2ED8
:101C5000AA1BBB1BFD010DC0AA1FBB1FEE1FFF1F50
:101C6000A217B307E407F50720F0A21BB30BE40BA0
:101C7000F50B661F771F881F991F1A9469F76095E7
:101C80007095809590959B01AC01BD01CF010895A1
:101C9000AA1BBB1B51E107C0AA1FBB1FA617B70792
:101CA00010F0A61BB70B881F991F5A95A9F78095AE
:101CB0009095BC01CD010895EE0FFF1F0590F491A2
:101CC000E02D0994F894FFCF0000000000036002AB
:101CD0008D024D03BE029C02B002000000003D05D3
:101CE00060026E036D030D0A006E616E00696E6620
:101CF000006F766600545F6F3A2000202A4300533D
:101D0000656E616C3A2000545F733A2000202A43CC
:061D10002000202509005F
:107E0000112484B714BE81FFF0D085E080938100F7
:107E100082E08093C00088E18093C10086E0809377
:107E2000C20080E18093C4008EE0C9D0259A86E02C
:107E300020E33CEF91E0309385002093840096BBD3
:107E4000B09BFECF1D9AA8958150A9F7CC24DD24C4
:107E500088248394B5E0AB2EA1E19A2EF3E0BF2EE7
:107E6000A2D0813461F49FD0082FAFD0023811F036
:107E7000013811F484E001C083E08DD089C08234E0
:107E800011F484E103C0853419F485E0A6D080C0E4
:107E9000853579F488D0E82EFF2485D0082F10E0AE
:107EA000102F00270E291F29000F111F8ED06801E7
:107EB0006FC0863521F484E090D080E0DECF843638
:107EC00009F040C070D06FD0082F6DD080E0C81688
:107ED00080E7D80618F4F601B7BEE895C0E0D1E017
:107EE00062D089930C17E1F7F0E0CF16F0E7DF06D8
:107EF00018F0F601B7BEE89568D007B600FCFDCFD4
:107F0000A601A0E0B1E02C9130E011968C91119780
:107F100090E0982F8827822B932B1296FA010C0160
:107F200087BEE89511244E5F5F4FF1E0A038BF0790
:107F300051F7F601A7BEE89507B600FCFDCF97BE46
:107F4000E89526C08437B1F42ED02DD0F82E2BD052
:107F50003CD0F601EF2C8F010F5F1F4F84911BD097
:107F6000EA94F801C1F70894C11CD11CFA94CF0C13
:107F7000D11C0EC0853739F428D08EE10CD085E9AC
:107F80000AD08FE07ACF813511F488E018D01DD067
:107F900080E101D065CF982F8091C00085FFFCCF94
:107FA0009093C60008958091C00087FFFCCF809118
:107FB000C00084FD01C0A8958091C6000895E0E648
:107FC000F0E098E1908380830895EDDF803219F02E
:107FD00088E0F5DFFFCF84E1DECF1F93182FE3DFCA
:107FE0001150E9F7F2DF1F91089580E0E8DFEE27F6
:047FF000FF270994CA
:027FFE00040479
:00000001FF
