:100000000C944D010C9475010C9475010C947501C0
:100010000C9475010C9475010C9475010C94750188
:100020000C9475010C9475010C9475010C94750178
:100030000C9475010C9475010C9475010C94750168
:100040000C943A040C9475010C94AA040C94840446
:100050000C9475010C9475010C9475010C94750148
:100060000C9475010C947501000000000000005F05
:1000700000000007000700147F147F14242A7F2A41
:10008000122313086462364955225000050300000C
:10009000001C2241000041221C0014083E081408E4
:1000A000083E0808005030000008080808080060F2
:1000B00060000020100804023E5149453E00427F86
:1000C000400042615149462141454B311814127F8D
:1000D0001027454545393C4A494930017109050316
:1000E0003649494936064949291E0036360000007E
:1000F0005636000008142241001414141414004150
:100100002214080201510906324979413E7E11113B
:10011000117E7F494949363E414141227F4141227A
:100120001C7F494949417F090909013E4149497AF2
:100130007F0808087F00417F41002040413F017F48
:10014000081422417F404040407F020C027F7F0420
:1001500008107F3E4141413E7F090909063E415159
:10016000215E7F09192946464949493101017F012C
:10017000013F4040403F1F2040201F3F4038403F4C
:100180006314081463070870080761514945430068
:100190007F41410002040810200041417F00040219
:1001A0000102044040404040000102040020545439
:1001B00054787F48444438384444442038444448C0
:1001C0007F3854545418087E0901020C5252523E92
:1001D0007F0804047800447D40002040443D007FB7
:1001E0001028440000417F40007C041804787C08FB
:1001F00004047838444444387C1414140808141453
:10020000187C7C080404084854545420043F44409B
:10021000203C4040207C1C2040201C3C4030403C86
:1002200044281028440C5050503C4464544C440022
:100230000836410000007F00000041360800100829
:100240000810080000000000000000080002010083
:100250000003040700000000000000000000000090
:10026000250028002B0000000000240027002A00A1
:10027000040404040404040402020202020203034C
:100280000303030301020408102040800102040854
:100290001020010204081020DC0411241FBECFEF3F
:1002A000D8E0DEBFCDBF11E0A0E0B1E0E8EAF5E1C3
:1002B00002C005900D92AE31B107D9F722E0AEE150
:1002C000B1E001C01D92AE33B207E1F711E0CDE419
:1002D000D1E004C02197FE010E94CC0ACC34D107A2
:1002E000C9F70E941B050C94D20A0C94000090E000
:1002F000FC01EC57FD4F249180599D4FFC018491E6
:10030000882399F090E0880F991FFC01EA59FD4F6E
:10031000A591B491FC01E45AFD4F859194918FB75A
:10032000F894EC91E22BEC938FBF089590E0FC01E0
:10033000E85BFD4F2491FC01EC57FD4F3491FC012B
:10034000E059FD4FE491EE23C9F0222339F0233028
:1003500001F1A8F4213019F1223029F1F0E0EE0F7B
:10036000FF1FE45AFD4FA591B4918FB7F894EC911B
:10037000611126C030953E233C938FBF08952730EE
:10038000A9F02830C9F0243049F7809180008F7D92
:1003900003C0809180008F7780938000DFCF84B589
:1003A0008F7784BDDBCF84B58F7DFBCF8091B0008C
:1003B0008F778093B000D2CF8091B0008F7DF9CF3E
:1003C0003E2BDACF8E3008F08E5087708064809399
:1003D0007C0080917A00806480937A0080917A001A
:1003E00086FDFCCF809178009091790008953FB709
:1003F000F89480914F0190915001A0915101B091DA
:10040000520126B5A89B05C02F3F19F00196A11DEA
:10041000B11D3FBFBA2FA92F982F8827BC01CD014E
:10042000620F711D811D911D42E0660F771F881FAD
:10043000991F4A95D1F708958F929F92AF92BF92DC
:10044000CF92DF92EF92FF920E94F7014B015C0185
:1004500084E6C82ED12CE12CF12C0E94F7016819FA
:1004600079098A099B09683E734081059105A8F3C3
:1004700021E0C21AD108E108F10888EE880E83E075
:10048000981EA11CB11CC114D104E104F10429F788
:10049000FF90EF90DF90CF90BF90AF909F908F90A4
:1004A0000895AF92BF92CF92DF92EF92FF920F9397
:1004B0001F93CF93DF936C017B018B01040F151FFA
:1004C000EB015E01AE18BF08C017D10759F0699162
:1004D000D601ED91FC910190F081E02DC6010995C6
:1004E000892B79F7C501DF91CF911F910F91FF9073
:1004F000EF90DF90CF90BF90AF900895FC01538DA7
:10050000448D252F30E0842F90E0821B930B5417ED
:1005100010F0CF96089501970895FC01918D828D7A
:10052000981761F0A28DAE0FBF2FB11D5D968C9113
:10053000928D9F5F9F73928F90E008958FEF9FEF52
:100540000895FC01918D828D981731F0828DE80F0E
:10055000F11D858D90E008958FEF9FEF0895FC01C8
:10056000918D228D892F90E0805C9F4F821B910995
:100570008F739927089583E591E00E94AF0221E0EF
:10058000892B09F420E0822F089580E090E0892BE8
:1005900029F00E94BB0281110C9400000895FC0117
:1005A000A48DA80FB92FB11DA35ABF4F2C91848DD4
:1005B00090E001968F739927848FA689B7892C9331
:1005C000A089B1898C91837080648C93938D848D84
:1005D000981306C00288F389E02D80818F7D808387
:1005E0000895EF92FF920F931F93CF93DF93EC0147
:1005F00081E0888F9B8D8C8D98131AC0E889F989CA
:10060000808185FF15C09FB7F894EE89FF896083CC
:10061000E889F98980818370806480839FBF81E04D
:1006200090E0DF91CF911F910F91FF90EF9008958F
:10063000F62E0B8D10E00F5F1F4F0F731127E02E6A
:100640008C8D8E110CC00FB607FCFACFE889F989A2
:10065000808185FFF5CFCE010E94CF02F1CFEB8DD7
:10066000EC0FFD2FF11DE35AFF4FF0829FB7F89476
:100670000B8FEA89FB8980818062CFCFCF93DF9394
:10068000EC01888D8823B9F0AA89BB89E889F989AA
:100690008C9185FD03C0808186FD0DC00FB607FCDF
:1006A000F7CF8C9185FFF2CF808185FFEDCFCE0112
:1006B0000E94CF02E9CFDF91CF910895089590E095
:1006C00080E00895EF92FF920F931F93CF93DF93F3
:1006D000EC01042F8E810E94960160E088850E94C3
:1006E0009601FC80ED8018E0602F661F6627661F6C
:1006F0008E2D0E949601000F61E08F2D0E949601C1
:1007000060E08F2D0E949601115071F761E088859D
:10071000DF91CF911F910F91FF90EF900C94960174
:10072000CF93DF93C0EFD1E01C861D8640E860E0E8
:10073000CE010E9462034D85406460E0CE01DF91EE
:10074000CF910C946203CF93DF930E949003D0E08B
:10075000C0E08091FB018695869586959091FA017F
:10076000899FC0011124C817D90740F440E061E017
:1007700080EF91E00E9462032196EBCFDF91CF9151
:100780000C949003CF92DF92EF92FF920F931F93FE
:10079000CF93DF9300D000D01F92CDB7DEB767FDB7
:1007A00066C07C01862F90E0603208F44FC08097CD
:1007B00025E0289FB001299F700D112468597F4FB3
:1007C00045E050E0CE0101960E9493088E010F5F34
:1007D0001F4F680185E0C80ED11CF80141918F01BF
:1007E00061E0C7010E9462030C151D05B1F740E0EE
:1007F00061E0C7010E946203F701848590E00696DC
:10080000628570E00E94A40A8487892B79F485852B
:1008100090E00196638529E3629F612D112466951E
:1008200070E06F5F7F4F0E94A40A858781E090E0AF
:100830000F900F900F900F900F90DF91CF911F911D
:100840000F91FF90EF90DF90CF900895FC013796C5
:10085000EE0FFF1FEE0DFF1D008111810115110527
:1008600009F0B7CF45E050E068E670E0ABCF90E02C
:1008700080E0DECF1F920F920FB60F9211242F93BC
:100880003F938F939F93AF93BF9380914B01909130
:100890004C01A0914D01B0914E0130914A0123E0ED
:1008A000230F2D3758F50196A11DB11D20934A0144
:1008B00080934B0190934C01A0934D01B0934E0156
:1008C00080914F0190915001A0915101B09152013E
:1008D0000196A11DB11D80934F0190935001A093EB
:1008E0005101B0935201BF91AF919F918F913F9170
:1008F0002F910F900FBE0F901F90189526E8230F91
:100900000296A11DB11DD2CF1F920F920FB60F926A
:1009100011242F933F934F935F936F937F938F9304
:100920009F93AF93BF93EF93FF9383E591E00E9472
:10093000CF02FF91EF91BF91AF919F918F917F91E6
:100940006F915F914F913F912F910F900FBE0F903C
:100950001F9018951F920F920FB60F9211242F938C
:100960008F939F93EF93FF93E0916301F091640164
:100970008081E0916901F0916A0182FD1BC0908144
:1009800080916C018F5F8F7320916D01821741F010
:10099000E0916C01F0E0ED5AFE4F958F80936C0171
:1009A000FF91EF919F918F912F910F900FBE0F901C
:1009B0001F9018958081F4CFE3E5F1E01382128255
:1009C00088EE93E0A0E0B0E084839583A683B783AC
:1009D00084E091E09183808385EC90E09587848723
:1009E00084EC90E09787868780EC90E0918B808BF9
:1009F00081EC90E0938B828B82EC90E0958B848BE2
:100A000086EC90E0978B868B118E128E138E148E4F
:100A1000E0EFF1E01382128286E191E0918380831E
:100A200083E0848384E0858385E0868386E0878312
:100A300087E080870895CF93DF9300D000D0CDB7B3
:100A4000DEB7789484B5826084BD84B5816084BD4E
:100A500085B5826085BD85B5816085BD80916E005C
:100A6000816080936E00109281008091810082608D
:100A700080938100809181008160809381008091CA
:100A800080008160809380008091B10084608093B9
:100A9000B1008091B00081608093B00080917A00B5
:100AA000846080937A0080917A00826080937A00DB
:100AB00080917A00816080937A0080917A008068CA
:100AC00080937A001092C10080E090E0A0E8BFE33C
:100AD00080931E0190931F01A0932001B0932101E8
:100AE0008093220190932301A0932401B0932501C8
:100AF0008093260190932701A0932801B0932901A8
:100B0000109232011092330110923401109235018B
:100B100010923E0110923F0110924001109241014B
:100B2000109236011092370110923801109239015B
:100B300010922A0110922B0110922C0110922D017B
:100B400010923A0110923B0110923C0110923D012B
:100B500084E58093FA0180E38093FB011092F90110
:100B60001092FC011092FD01EEEFF1E080E4DF0154
:100B70001D928A95E9F78091F4010E947701809196
:100B8000F5010E9477018091F6010E947701809122
:100B9000F7010E9477018091F8010E94770161E0DE
:100BA0008091F7010E94960161E08091F8010E9416
:100BB000960160E08091F7010E9496010E941C025C
:100BC00061E08091F7010E94960141E260E080EFD0
:100BD00091E00E94620343E160E080EF91E00E94B7
:100BE00062038091F90142EC813039F440EE60E01B
:100BF00080EF91E00E94620345E060E080EF91E0C9
:100C00000E94620340E260E080EF91E00E94620394
:100C100049E060E080EF91E00E9462030E94A3033C
:100C200048E060E080EF91E00E9462034CE060E009
:100C300080EF91E00E9462030E941C0240E860E0A5
:100C400080EF91E00E94620340E460E080EF91E079
:100C50000E946203E0916301F091640182E080836D
:100C6000E0915F01F09160011082E0916101F091EB
:100C700062018FEC808310926B01E0916701F0912B
:100C8000680186E08083E0916501F09166018081D2
:100C900080618083E0916501F091660180818860C8
:100CA0008083E0916501F091660180818068808396
:100CB000E0916501F091660180818F7D80838EE0F7
:100CC0000E94E20140E050E068EC71E440932A01A8
:100CD00050932B0160932C0170932D012CE0AC01FB
:100CE000249FC001259F900D112468EE73E00E949F
:100CF000A40A625E7F4F072E000C880B990B0E949E
:100D0000820920E030E048EC51E40E949C086B012D
:100D10007C01C0922E01D0922F01E0923001F0921E
:100D200031012091320130913301409134015091D1
:100D300035010E949D082B013C01409232015092E6
:100D40003301609234017092350120913E0130915F
:100D50003F014091400150914101C701B6010E94FD
:100D60009C084B015C018092360190923701A09261
:100D70003801B092390120911E0130911F0140913C
:100D8000200150912101C701B6010E94370A6983F1
:100D90007A838B839C83209122013091230140919F
:100DA000240150912501C301B2010E94370A9B0121
:100DB000AC0169817A818B819C810E949D082B0105
:100DC0003C0120912601309127014091280150914A
:100DD0002901C501B4010E94370A9B01AC01C3017E
:100DE000B2010E949D084B015C0180923A019092F1
:100DF0003B01A0923C01B0923D0120E030E04FE782
:100E000053E40E94320A18160CF059C180E090E0B9
:100E1000AFE7B3E480933A0190933B01A0933C0188
:100E2000B0933D01C0923E01D0923F01E09240015B
:100E3000F092410180913A0190913B01A0913C01D7
:100E4000B0913D018093460190934701A0934801E2
:100E5000B09349019CE0392E08EE13E00E94A303F1
:100E6000C0904601D0904701E0904801F0904901C0
:100E70008FB7F89440914B0150914C0160914D0116
:100E800070914E018FBF8091420190914301A091DA
:100E90004401B0914501481B590B6A0B7B0B44364A
:100EA00051056105710508F41CC18C599F4FAF4F66
:100EB000BF4F8093420190934301A0934401B093AC
:100EC000450120E030E040EA51E4C701B6010E944C
:100ED000370A20E030E04FE753E40E940E0920E09B
:100EE00030E048EC52E40E94370A20E030E04AE764
:100EF00054E40E940E0920E030E040E251E40E94F8
:100F00000E092AE037ED43E65FE30E940E0920E078
:100F100030E048EC51E40E949D086B017C01C092D6
:100F20004601D0924701E0924801F09249018EE0DB
:100F30000E94E201C0922A01D0922B01E0922C0182
:100F4000F0922D01DC013A9EC0013B9E900D1124D0
:100F5000B8010E94A40A625E7F4F072E000C880B26
:100F6000990B0E948209A70196010E949C086B01BF
:100F70007C01C0922E01D0922F01E0923001F092BC
:100F8000310120913201309133014091340150916F
:100F900035010E949D082B013C0140923201509284
:100FA0003301609234017092350120913E013091FD
:100FB0003F014091400150914101C701B6010E949B
:100FC0009C084B015C018092360190923701A092FF
:100FD0003801B092390120911E0130911F014091DA
:100FE000200150912101C701B6010E94370A69838F
:100FF0007A838B839C83209122013091230140913D
:10100000240150912501C301B2010E94370A9B01BE
:10101000AC0169817A818B819C810E949D082B01A2
:101020003C012091260130912701409128015091E7
:101030002901C501B4010E94370A9B01AC01C3011B
:10104000B2010E949D084B015C0120E030E04FE7B7
:1010500053E40E94320A18160CF04AC080E090E077
:10106000AFE7B3E480933A0190933B01A0933C0136
:10107000B0933D01C0923E01D0923F01E092400109
:10108000F092410180913A0190913B01A0913C0185
:10109000B0913D018093460190934701A093480190
:1010A000B093490120E030E0232B09F4D7CE0E9411
:1010B000BB02882309F4D2CE0E940000CFCE20E0EC
:1010C00030E0A901C501B4010E94090987FFAACE39
:1010D00010923A0110923B0110923C0110923D0196
:1010E000A1CEC12CD12C88ECE82E81E4F82E17CFAC
:1010F00020E030E0A901C501B4010E94090987FD83
:1011000009C080923A0190923B01A0923C01B092BA
:101110003D01B0CF10923A0110923B0110923C0178
:1011200010923D01A7CFFB01DC0102C005900D929A
:1011300041505040D8F708955058BB27AA270E9425
:10114000B4080C94F8090E94EA0938F00E94F109E9
:1011500020F039F49F3F19F426F40C94E7090EF4BB
:10116000E095E7FB0C94E109E92F0E94090A58F386
:10117000BA17620773078407950720F079F4A6F57C
:101180000C942B0A0EF4E0950B2EBA2FA02D0B0118
:10119000B90190010C01CA01A0011124FF27591BBC
:1011A00099F0593F50F4503E68F11A16F040A22FC2
:1011B000232F342F4427585FF3CF46953795279533
:1011C000A795F0405395C9F77EF41F16BA0B620B32
:1011D000730B840BBAF09150A1F0FF0FBB1F661F79
:1011E000771F881FC2F70EC0BA0F621F731F841FBC
:1011F00048F4879577956795B795F7959E3F08F0E2
:10120000B0CF9395880F08F09927EE0F97958795A3
:1012100008950E94BD0908F481E008950E94220902
:101220000C94F8090E94F10958F00E94EA0940F074
:1012300029F45F3F29F00C94E10951110C942C0A18
:101240000C94E7090E94090A68F39923B1F3552326
:1012500091F3951B550BBB27AA27621773078407C9
:1012600038F09F5F5F4F220F331F441FAA1FA9F35F
:1012700035D00E2E3AF0E0E832D091505040E6954D
:10128000001CCAF72BD0FE2F29D0660F771F881FAE
:10129000BB1F261737074807AB07B0E809F0BB0BA1
:1012A000802DBF01FF2793585F4F3AF09E3F5105B5
:1012B00078F00C94E1090C942C0A5F3FE4F3983E1B
:1012C000D4F3869577956795B795F7959F5FC9F79E
:1012D000880F911D9695879597F90895E1E0660F1F
:1012E000771F881FBB1F621773078407BA0720F098
:1012F000621B730B840BBA0BEE1F88F7E095089501
:10130000E89409C097FB3EF490958095709561959F
:101310007F4F8F4F9F4F9923A9F0F92F96E9BB2755
:101320009395F695879577956795B795F111F8CFD1
:10133000FAF4BB0F11F460FF1BC06F5F7F4F8F4F3C
:101340009F4F16C0882311F096E911C0772321F032
:101350009EE8872F762F05C0662371F096E8862FCA
:1013600070E060E02AF09A95660F771F881FDAF721
:10137000880F9695879597F90895990F0008550F4E
:10138000AA0BE0E8FEEF16161706E807F907C0F00B
:1013900012161306E407F50798F0621B730B840B13
:1013A000950B39F40A2661F0232B242B252B21F4ED
:1013B00008950A2609F4A140A6958FEF811D811D8D
:1013C000089597F99F6780E870E060E008959FEFC7
:1013D00080EC089500240A941616170618060906CC
:1013E000089500240A94121613061406050608959B
:1013F000092E0394000C11F4882352F0BB0F40F423
:10140000BF2B11F460FF04C06F5F7F4F8F4F9F4F62
:10141000089557FD9058440F551F59F05F3F71F0E4
:101420004795880F97FB991F61F09F3F79F087954B
:101430000895121613061406551FF2CF4695F1DFD4
:1014400008C0161617061806991FF1CF8695710564
:10145000610508940895E894BB2766277727CB0198
:1014600097F908950E94BD0908F48FEF08950E942E
:101470004A0A0C94F8090E94EA0938F00E94F1091E
:1014800020F0952311F00C94E1090C94E709112444
:101490000C942C0A0E94090A70F3959FC1F3950FD2
:1014A00050E0551F629FF001729FBB27F00DB11DE8
:1014B000639FAA27F00DB11DAA1F649F6627B00D78
:1014C000A11D661F829F2227B00DA11D621F739F61
:1014D000B00DA11D621F839FA00D611D221F749F6F
:1014E0003327A00D611D231F849F600D211D822FB6
:1014F000762F6A2F11249F5750409AF0F1F08823DD
:101500004AF0EE0FFF1FBB1F661F771F881F915009
:101510005040A9F79E3F510580F00C94E1090C94CE
:101520002C0A5F3FE4F3983ED4F386957795679550
:10153000B795F795E7959F5FC1F7FE2B880F911D33
:101540009695879597F9089597FB072E16F40094C2
:1015500007D077FD09D00E94B80A07FC05D03EF4F9
:10156000909581959F4F0895709561957F4F08954F
:10157000AA1BBB1B51E107C0AA1FBB1FA617B707B9
:1015800010F0A61BB70B881F991F5A95A9F78095D5
:101590009095BC01CD010895EE0FFF1F0590F491C9
:0815A000E02D0994F894FFCF3F
:1015A80000000000F10251027E023E03AF028D02EC
:0E15B800A10200000000C20351025F035E03A7
:00000001FF
