:100000000C944D010C9475010C9475010C947501C0
:100010000C9475010C9475010C9475010C94750188
:100020000C9475010C9475010C9475010C94750178
:100030000C9475010C9475010C9475010C94750168
:100040000C94A0050C9475010C9410060C94EA0510
:100050000C9475010C9475010C9475010C94750148
:100060000C9475010C947501000000000000005F05
:1000700000000007000700147F147F14242A7F2A41
:10008000122313086462364955225000050300000C
:10009000001C2241000041221C0014083E081408E4
:1000A000083E0808005030000008080808080060F2
:1000B00060000020100804023E5149453E00427F86
:1000C000400042615149462141454B311814127F8D
:1000D0001027454545393C4A494930017109050316
:1000E0003649494936064949291E0036360000007E
:1000F0005636000008142241001414141414004150
:100100002214080201510906324979413E7E11113B
:10011000117E7F494949363E414141227F4141227A
:100120001C7F494949417F090909013E4149497AF2
:100130007F0808087F00417F41002040413F017F48
:10014000081422417F404040407F020C027F7F0420
:1001500008107F3E4141413E7F090909063E415159
:10016000215E7F09192946464949493101017F012C
:10017000013F4040403F1F2040201F3F4038403F4C
:100180006314081463070870080761514945430068
:100190007F41410002040810200041417F00040219
:1001A0000102044040404040000102040020545439
:1001B00054787F48444438384444442038444448C0
:1001C0007F3854545418087E0901020C5252523E92
:1001D0007F0804047800447D40002040443D007FB7
:1001E0001028440000417F40007C041804787C08FB
:1001F00004047838444444387C1414140808141453
:10020000187C7C080404084854545420043F44409B
:10021000203C4040207C1C2040201C3C4030403C86
:1002200044281028440C5050503C4464544C440022
:100230000836410000007F00000041360800100829
:100240000810080000000000000000002400270043
:100250002A0000000000250028002B0004040404EC
:100260000404040402020202020203030303030360
:10027000010204081020408001020408102001023D
:100280000408102000000008000201000003040719
:100290000000000000000000420611241FBECFEF46
:1002A000D8E0DEBFCDBF11E0A0E0B1E0E6E8FCE1C0
:1002B00002C005900D92A035B107D9F722E0A0E564
:1002C000B1E001C01D92A838B207E1F711E0CDE41A
:1002D000D1E004C02197FE010E943B0ECC34D1072F
:1002E000C9F70E9481060C94410E0C94000090E026
:1002F000FC01EC57FD4F2491FC01E059FD4F349176
:10030000FC01E45AFD4FE491EE23C9F0222339F0B9
:10031000233001F1A8F4213019F1223029F1F0E065
:10032000EE0FFF1FEE5AFD4FA591B4918FB7F894D1
:10033000EC91611126C030953E233C938FBF089508
:100340002730A9F02830C9F0243049F78091800087
:100350008F7D03C0809180008F7780938000DFCFF6
:1003600084B58F7784BDDBCF84B58F7DFBCF809143
:10037000B0008F778093B000D2CF8091B0008F7D96
:10038000F9CF3E2BDACFCF93DF9390E0FC01E05919
:10039000FD4F2491845A9D4FFC0184918823D1F014
:1003A00090E0880F991FFC01E85BFD4FA591B49187
:1003B000FC01EE5AFD4FC591D49161110EC09FB75B
:1003C000F8948C91E22FE0958E238C932881E22380
:1003D000E8839FBFDF91CF9108958FB7F894EC9198
:1003E000E22BEC938FBFF6CF8E3008F08E508770E3
:1003F000806480937C0080917A00806480937A008E
:1004000080917A0086FDFCCF8091780090917900F0
:1004100008953FB7F8948091990190919A01A09125
:100420009B01B0919C0126B5A89B05C02F3F19F0F8
:100430000196A11DB11D3FBFBA2FA92F982F882764
:10044000BC01CD01620F711D811D911D42E0660F3F
:10045000771F881F991F4A95D1F708958F929F9211
:10046000AF92BF92CF92DF92EF92FF924B015C016D
:100470000E9409026B017C010E9409026C197D092E
:100480008E099F09683E734081059105A8F321E01C
:10049000821A9108A108B10888EEC80E83E0D81E20
:1004A000E11CF11C81149104A104B10429F7FF900F
:1004B000EF90DF90CF90BF90AF909F908F90089576
:1004C000AF92BF92CF92DF92EF92FF920F931F9362
:1004D000CF93DF936C017B018B01040F151FEB01A0
:1004E0005E01AE18BF08C017D10759F06991D60157
:1004F000ED91FC910190F081E02DC6010995892BC9
:1005000079F7C501DF91CF911F910F91FF90EF9087
:10051000DF90CF90BF90AF900895FC01538D448D34
:10052000252F30E0842F90E0821B930B541710F09E
:10053000CF96089501970895FC01918D828D9817AB
:1005400061F0A28DAE0FBF2FB11D5D968C91928D83
:100550009F5F9F73928F90E008958FEF9FEF0895B4
:10056000FC01918D828D981731F0828DE80FF11D7D
:10057000858D90E008958FEF9FEF0895FC01918D98
:10058000228D892F90E0805C9F4F821B91098F7391
:10059000992708958DE991E00E94BE0221E0892B00
:1005A00009F420E0822F089580E090E0892B29F063
:1005B0000E94CA0281110C9400000895FC01A48DD0
:1005C000A80FB92FB11DA35ABF4F2C91848D90E075
:1005D00001968F739927848FA689B7892C93A08958
:1005E000B1898C91837080648C93938D848D9813E2
:1005F00006C00288F389E02D80818F7D8083089575
:10060000EF92FF920F931F93CF93DF93EC0181E062
:10061000888F9B8D8C8D98131AC0E889F989808109
:1006200085FF15C09FB7F894EE89FF896083E8893C
:10063000F98980818370806480839FBF81E090E02E
:10064000DF91CF911F910F91FF90EF900895F62EBB
:100650000B8D10E00F5F1F4F0F731127E02E8C8D55
:100660008E110CC00FB607FCFACFE889F98980819A
:1006700085FFF5CFCE010E94DE02F1CFEB8DEC0FAE
:10068000FD2FF11DE35AFF4FF0829FB7F8940B8FB7
:10069000EA89FB8980818062CFCFCF93DF93EC0121
:1006A000888D8823B9F0AA89BB89E889F9898C915A
:1006B00085FD03C0808186FD0DC00FB607FCF7CF16
:1006C0008C9185FFF2CF808185FFEDCFCE010E9416
:1006D000DE02E9CFDF91CF910895089590E080E0A8
:1006E0000895FB0101900020E9F73197AF01461B07
:1006F000570BDC01ED91FC910280F381E02D099410
:100700008F929F92AF92BF92EF92FF920F931F939F
:10071000CF93DF93CDB7DEB7A1970FB6F894DEBFC6
:100720000FBECDBF7C01FA01CB0119A2223008F423
:100730002AE08E010F5D1F4F822E912CB12CA12C2F
:10074000BF01A50194010E94050EF901CA016A309A
:100750000CF5605DD8016E938D01232B242B252B86
:1007600079F790E080E0109721F0BD01C7010E9469
:100770007103A1960FB6F894DEBF0FBECDBFDF9117
:10078000CF911F910F91FF90EF90BF90AF909F90EE
:100790008F900895695CDECF2F923F924F925F92C7
:1007A0006F927F928F929F92AF92BF92CF92DF9281
:1007B000EF92FF921F93CF93DF93EC016A017B01CD
:1007C000722EAB019601CB01B6010E94EC0D6EE1D9
:1007D00071E0811126C046015701E894B7F82FEF68
:1007E0003FEF4FE75FE7C501B4010E94EC0D8111B7
:1007F0000CC02FEF3FEF4FE75FE7C501B4010E9448
:10080000220C62E271E0181664F02FEF3FEF4FE721
:100810005FE4C701B6010E947A0D1816B4F466E2CF
:1008200071E0CE01DF91CF911F91FF90EF90DF90AB
:10083000CF90BF90AF909F908F907F906F905F9080
:100840004F903F902F900C9471032FEF3FEF4FE7A5
:100850005FECC701B6010E94220C87FDE0CF20E0CB
:1008600030E0A901C701B6010E94220C312C212CD5
:1008700087FF0DC0E881F9810190F081E02D6DE2E4
:10088000CE0109951C01F7FAF094F7F8F09410E006
:1008900060E070E080E09FE3711641F020E030E01E
:1008A00040E251E40E94270C1F5FF6CFA70196019A
:1008B0000E94B60B2B013C010E94990C4B015C017C
:1008C0002AE0BC01A401CE010E9480037C01E20C5D
:1008D000F31C1123E1F1C501B4010E94C80C9B0176
:1008E000AC01C301B2010E94B50B4B015C01E88170
:1008F000F9810190F081E02D6EE2CE010995E80EBC
:10090000F91E115020F120E030E040E251E4C50131
:10091000B4010E947F0D2B013C010E94990C4B01F8
:10092000B12CA12C2AE0B501A401CE010E948003C4
:10093000E80EF91EC501B4010E94C80C9B01AC0170
:10094000C301B2010E94B50B4B015C01DACFC701B4
:10095000DF91CF911F91FF90EF90DF90CF90BF90EC
:10096000AF909F908F907F906F905F904F903F904F
:100970002F900895EF92FF920F931F93CF93DF93E1
:10098000EC01042F8E810E94770160E088850E942F
:100990007701FC80ED8018E0602F661F6627661FD8
:1009A0008E2D0E947701000F61E08F2D0E9477014C
:1009B00060E08F2D0E947701115071F761E088850A
:1009C000DF91CF911F910F91FF90EF900C947701E1
:1009D000CF93DF93CAE3D2E01C8690E06B8529E3D6
:1009E000629F612D1124669570E06F5F7F4F0E94BA
:1009F000F10D8D8740E860E0CE010E94BA044D857C
:100A0000406460E0CE01DF91CF910C94BA04CF93A3
:100A1000DF9380E00E94E804D0E0C0E080914502CE
:100A200086958695869590914402899FC0011124F0
:100A3000C817D90740F440E061E08AE392E00E94E1
:100A4000BA042196EBCF80E0DF91CF910C94E804BB
:100A5000CF92DF92EF92FF920F931F93CF93DF938A
:100A600000D000D01F92CDB7DEB767FD66C07C0115
:100A7000862F90E0603208F44FC0809725E0289FD1
:100A8000B001299F700D112468597F4F45E050E057
:100A9000CE0101960E94AC0B8E010F5F1F4F6801C3
:100AA00085E0C80ED11CF80141918F0161E0C701BA
:100AB0000E94BA040C151D05B1F740E061E0C701C2
:100AC0000E94BA04F701848590E00696628570E082
:100AD0000E94F10D8487892B79F4858590E0019639
:100AE000638529E3629F612D1124669570E06F5F35
:100AF0007F4F0E94F10D858781E090E00F900F906D
:100B00000F900F900F90DF91CF911F910F91FF9059
:100B1000EF90DF90CF900895FC013796EE0FFF1F06
:100B2000EE0DFF1D008111810115110509F0B7CFF0
:100B300045E050E068E670E0ABCF90E080E0DECFCB
:100B40001F920F920FB60F9211242F933F938F9302
:100B50009F93AF93BF938091950190919601A0913F
:100B60009701B09198013091940123E0230F2D3724
:100B700058F50196A11DB11D209394018093950114
:100B800090939601A0939701B09398018091990159
:100B900090919A01A0919B01B0919C010196A11D99
:100BA000B11D8093990190939A01A0939B01B093FA
:100BB0009C01BF91AF919F918F913F912F910F9089
:100BC0000FBE0F901F90189526E8230F0296A11DC7
:100BD000B11DD2CF1F920F920FB60F9211242F93F7
:100BE0003F934F935F936F937F938F939F93AF93B5
:100BF000BF93EF93FF938DE991E00E94DE02FF9196
:100C0000EF91BF91AF919F918F917F916F915F9184
:100C10004F913F912F910F900FBE0F901F901895FD
:100C20001F920F920FB60F9211242F938F939F93C1
:100C3000EF93FF93E091AD01F091AE018081E091DF
:100C4000B301F091B40182FD1BC090818091B60187
:100C50008F5F8F732091B701821741F0E091B60149
:100C6000F0E0E356FE4F958F8093B601FF91EF9130
:100C70009F918F912F910F900FBE0F901F901895FD
:100C80008081F4CFEDE9F1E01382128288EE93E0E7
:100C9000A0E0B0E084839583A683B78384E091E0ED
:100CA0009183808385EC90E09587848784EC90E045
:100CB0009787868780EC90E0918B808B81EC90E029
:100CC000938B828B82EC90E0958B848B86EC90E00A
:100CD000978B868B118E128E138E148EEAE3F2E0C0
:100CE0001382128286E191E09183808383E0848382
:100CF00084E0858385E0868386E0878387E080873C
:100D00000895CF93DF93CDB7DEB728970FB6F89449
:100D1000DEBF0FBECDBF789484B5826084BD84B53C
:100D2000816084BD85B5826085BD85B5816085BDE6
:100D300080916E00816080936E001092810080919E
:100D40008100826080938100809181008160809326
:100D50008100809180008160809380008091B1004B
:100D600084608093B1008091B00081608093B00076
:100D700080917A00846080937A0080917A0082600A
:100D800080937A0080917A00816080937A008091CC
:100D90007A00806880937A001092C10080E090E031
:100DA000A0E2B1E48093500190935101A0935201CD
:100DB000B093530180E090E0A0E8BFE3809354013A
:100DC00090935501A0935601B0935701109258018A
:100DD0001092590110925A0110925B0161E083E078
:100DE0000E94C30161E084E00E94C30161E085E0EC
:100DF0000E94C30161E086E00E94C30161E087E0D8
:100E00000E94C30161E08AE00E94C30161E088E0C2
:100E10000E94C30160E089E00E94C3011092930127
:100E2000109292011092910110929001109264011F
:100E30001092650110926601109267011092700184
:100E40001092710110927201109273011092680158
:100E50001092690110926A0110926B0110925C016C
:100E600010925D0110925E0110925F0110926C0170
:100E700010926D0110926E0110926F0184E58093C3
:100E8000440280E38093450210924302109246028E
:100E900010924702E8E4F2E080E4DF011D928A95B7
:100EA000E9F761E080913E020E94C30161E0809118
:100EB0003F020E94C30161E0809140020E94C30191
:100EC00061E0809141020E94C30161E08091420291
:100ED0000E94C30161E0809141020E94770161E0BC
:100EE000809142020E94770160E0809141020E945D
:100EF000770164E670E080E090E00E942E0261E0FD
:100F0000809141020E94770141E260E08AE392E031
:100F10000E94BA0443E160E08AE392E00E94BA04CE
:100F20008091430242EC813039F440EE60E08AE384
:100F300092E00E94BA0445E060E08AE392E00E94F9
:100F4000BA0440E260E08AE392E00E94BA0449E019
:100F500060E08AE392E00E94BA040E94070548E03C
:100F600060E08AE392E00E94BA044CE060E08AE329
:100F700092E00E94BA0464E670E080E090E00E9493
:100F80002E0240E860E08AE392E00E94BA0440E466
:100F900060E08AE392E00E94BA04E091AD01F09132
:100FA000AE0182E08083E091A901F091AA01108254
:100FB000E091AB01F091AC018FEC80831092B50110
:100FC000E091B101F091B20186E08083E091AF0140
:100FD000F091B001808180618083E091AF01F09158
:100FE000B001808188608083E091AF01F091B00111
:100FF000808180688083E091AF01F091B0018081B1
:101000008F7D80838EE00E94F4012CE0AC01249F50
:10101000C001259F900D112468EE73E00E94F10D30
:10102000625E7F4F072E000C880B990B0E94CA0C42
:10103000609384017093850180938601909387016A
:1010400000E010E028EC31E400935C0110935D01B6
:1010500020935E0130935F01A90198010E94B50BB6
:101060006B017C01C0926001D0926101E09262014B
:10107000F092630120916401309165014091660115
:10108000509167010E94B60B2B013C014092640114
:101090005092650160926601709267012091700123
:1010A000309171014091720150917301C701B601F5
:1010B0000E94B50B4B015C0180926801909269011E
:1010C000A0926A01B0926B012091500130915101C0
:1010D0004091520150915301C701B6010E947F0D0A
:1010E00069837A838B839C832091540130915501CD
:1010F0004091560150915701C301B2010E947F0DEA
:101100009B01AC0169817A818B819C810E94B60B25
:101110002B013C01209158013091590140915A0115
:1011200050915B01C501B4010E947F0D9B01AC0190
:10113000C301B2010E94B60B4B015C0180926C01AD
:1011400090926D01A0926E01B0926F0120E030E0AC
:101150004FE753E40E947A0D18160CF0D2C180E0DC
:1011600090E0AFE7B3E480936C0190936D01A0939E
:101170006E01B0936F01C0927001D0927101E09244
:101180007201F092730180916C0190916D01A091B8
:101190006E01B0916F0180938C0190938D01A093AB
:1011A0008E01B0938F0188EE282E83E0382E00E068
:1011B00010E082E10E94F4019093930180939201E8
:1011C00083E10E94F40190939101809390010E9429
:1011D000070580908C0190908D01A0908E01B090B9
:1011E0008F0180917C0181110FC080E090E0A8EC1C
:1011F000B1E48093780190937901A0937A01B09340
:101200007B0191E090937C018FB7F8944091950118
:101210005091960160919701709198018FBF8091D4
:10122000740190917501A0917601B0917701481BEE
:10123000590B6A0B7B0B443651056105710508F4A7
:1012400062C08C599F4FAF4FBF4F809374019093F2
:101250007501A0937601B0937701C0907801D0908A
:101260007901E0907A01F0907B0120E030E040EAE3
:1012700051E4C501B4010E947F0D20E030E04FE74A
:1012800053E40E94270C20E030E048EC52E40E9436
:101290007F0D20E030E04AE754E40E94270C20E074
:1012A00030E040E251E40E94270C2AE037ED43E6AB
:1012B0005FE30E94270CA70196010E94B60B4B0129
:1012C0005C0120E030E048EC51E4C701B6010E9427
:1012D000B50B27E137EB41ED58E30E947F0D20E08D
:1012E00030E040EA50E40E947F0D9B01AC01C50153
:1012F000B4010E94B50B60937801709379018093DB
:101300007A0190937B014090780150907901609030
:101310007A0170907B01409288015092890160921D
:101320008A0170928B018EE00E94F4012CE0DC01B6
:101330002A9FC0012B9F900D1124B1010E94F10D35
:10134000625E7F4F072E000C880B990B0E94CA0C1F
:101350006B017C01209184013091850140918601CF
:10136000509187010E94220C882309F4B5C0C092D5
:101370008401D0928501E0928601F092870140922B
:101380005C0150925D0160925E0170925F01A30169
:101390009201C701B6010E94B50B6B017C01C0929E
:1013A0006001D0926101E0926201F09263012091AC
:1013B00064013091650140916601509167010E947E
:1013C000B60B4B015C018092640190926501A09282
:1013D0006601B092670120917001309171014091D6
:1013E000720150917301C701B6010E94B50B698368
:1013F0007A838B839C8360936801709369018093E7
:101400006A0190936B0120915001309151014091FC
:10141000520150915301C701B6010E947F0D6D83A7
:101420007E838F839887209154013091550140919C
:10143000560150915701C501B4010E947F0D9B01D7
:10144000AC016D817E818F8198850E94B60B4B0126
:101450005C01209158013091590140915A015091FD
:101460005B0169817A818B819C810E947F0D9B0148
:10147000AC01C501B4010E94B60B4B015C0120E038
:1014800030E04FE753E40E947A0D18160CF04BC081
:1014900080E090E0AFE7B3E480936C0190936D013E
:1014A000A0936E01B0936F01C0927001D092710150
:1014B000E0927201F092730180916C0190916D0144
:1014C000A0916E01B0916F0180938C0190938D017A
:1014D000A0938E01B0938F0120E030E040EF51E403
:1014E000C301B2010E94220C87FF38C061E08AE08C
:1014F0000E94770160E089E00E94770160E088E067
:1015000042C020E030E0A901C501B4010E94220CD4
:1015100087FF31CE10926C0110926D0110926E0116
:1015200010926F0128CE20E030E0A901C501B4017E
:101530000E94220C87FD09C080926C0190926D017F
:10154000A0926E01B0926F01AFCF10926C01109219
:101550006D0110926E0110926F01A6CF20E030E075
:1015600048E252E4C301B2010E947A0D18160CF051
:10157000D7C061E088E00E94770160E08AE00E94C5
:10158000770160E089E00E9477018091920190915B
:101590009301892B09F466C0C0908C01D0908D0115
:1015A000E0908E01F0908F018090840190908501F1
:1015B000A0908601B090870180E00E94E8046AE272
:1015C00071E08AE392E00E94710322E0B501A40178
:1015D0008AE392E00E94CC0360E371E08AE392E048
:1015E0000E94710381E00E94E80464E371E08AE3F1
:1015F00092E00E94710320E030E040EA51E4C7012C
:10160000B6010E947F0D20E030E04FE753E40E94D6
:10161000270CAB01BC0122E08AE392E00E94CC03DC
:1016200061E371E08AE392E00E94710382E00E942C
:10163000E8046CE371E08AE392E00E94710322E027
:10164000B301A2018AE392E00E94CC0362E471E05C
:101650008AE392E00E94710367E471E08AE392E01A
:101660000E9471038091900190919101892B09F45E
:1016700045C0C0908801D0908901E0908A01F09027
:101680008B0180908C0190908D01A0908E01B09084
:101690008F01409084015090850160908601709088
:1016A00087018DE991E00E94BE0297FF27C022E0EA
:1016B000B301A2018DE991E00E94CC036BE471E0DB
:1016C0008DE991E00E94710322E0B501A4018DE94A
:1016D00091E00E94CC036BE471E08DE991E00E94FF
:1016E000710322E0B701A6018DE991E00E94CC03CD
:1016F0006DE471E08DE991E00E9471036AE070E0B1
:1017000080E090E00E942E020115110509F451CDF0
:101710000E94CA02882309F44CCD0E94000049CDE2
:1017200020E030E048E252E4C301B2010E94220C02
:1017300018160CF42ACF20E030E040EF51E4C3014A
:10174000B2010E947A0D87FD20CF61E089E00E94FE
:10175000770160E08AE0D0CEFB01DC0102C0059099
:101760000D9241505040D8F708955058BB27AA27F2
:101770000E94CD0B0C94400D0E94320D38F00E9457
:10178000390D20F039F49F3F19F426F40C942F0DF5
:101790000EF4E095E7FB0C94290DE92F0E94510D02
:1017A00058F3BA17620773078407950720F079F496
:1017B000A6F50C94730D0EF4E0950B2EBA2FA02D08
:1017C0000B01B90190010C01CA01A0011124FF27EE
:1017D000591B99F0593F50F4503E68F11A16F040E9
:1017E000A22F232F342F4427585FF3CF46953795E8
:1017F0002795A795F0405395C9F77EF41F16BA0BAD
:10180000620B730B840BBAF09150A1F0FF0FBB1F5A
:10181000661F771F881FC2F70EC0BA0F621F731FA3
:10182000841F48F4879577956795B795F7959E3F00
:1018300008F0B0CF9395880F08F09927EE0F979591
:10184000879508950E94050D08F481E008950E948F
:101850003B0C0C94400D0E94390D58F00E94320D43
:1018600040F029F45F3F29F00C94290D51110C949C
:10187000740D0C942F0D0E94510D68F39923B1F350
:10188000552391F3951B550BBB27AA2762177307A6
:10189000840738F09F5F5F4F220F331F441FAA1F3A
:1018A000A9F335D00E2E3AF0E0E832D091505040F6
:1018B000E695001CCAF72BD0FE2F29D0660F771FA4
:1018C000881FBB1F261737074807AB07B0E809F08A
:1018D000BB0B802DBF01FF2793585F4F3AF09E3F0F
:1018E000510578F00C94290D0C94740D5F3FE4F3CE
:1018F000983ED4F3869577956795B795F7959F5F52
:10190000C9F7880F911D9695879597F90895E1E09D
:10191000660F771F881FBB1F621773078407BA07FC
:1019200020F0621B730B840BBA0BEE1F88F7E09557
:1019300008950E94590D88F09F5798F0B92F992764
:10194000B751B0F0E1F0660F771F881F991F1AF0AA
:10195000BA95C9F714C0B13091F00E94730DB1E08F
:1019600008950C94730D672F782F8827B85F39F08E
:10197000B93FCCF3869577956795B395D9F73EF443
:1019800090958095709561957F4F8F4F9F4F0895EB
:10199000E89409C097FB3EF4909580957095619509
:1019A0007F4F8F4F9F4F9923A9F0F92F96E9BB27BF
:1019B0009395F695879577956795B795F111F8CF3B
:1019C000FAF4BB0F11F460FF1BC06F5F7F4F8F4FA6
:1019D0009F4F16C0882311F096E911C0772321F09C
:1019E0009EE8872F762F05C0662371F096E8862F34
:1019F00070E060E02AF09A95660F771F881FDAF78B
:101A0000880F9695879597F90895990F0008550FB7
:101A1000AA0BE0E8FEEF16161706E807F907C0F074
:101A200012161306E407F50798F0621B730B840B7C
:101A3000950B39F40A2661F0232B242B252B21F456
:101A400008950A2609F4A140A6958FEF811D811DF6
:101A5000089597F99F6780E870E060E008959FEF30
:101A600080EC089500240A94161617061806090635
:101A7000089500240A941216130614060506089504
:101A8000092E0394000C11F4882352F0BB0F40F48C
:101A9000BF2B11F460FF04C06F5F7F4F8F4F9F4FCC
:101AA000089557FD9058440F551F59F05F3F71F04E
:101AB0004795880F97FB991F61F09F3F79F08795B5
:101AC0000895121613061406551FF2CF4695F1DF3E
:101AD00008C0161617061806991FF1CF86957105CE
:101AE000610508940895E894BB2766277727CB0102
:101AF00097F908950E94050D08F48FEF08950E944C
:101B0000920D0C94400D0E94320D38F00E94390D58
:101B100020F0952311F00C94290D0C942F0D112415
:101B20000C94740D0E94510D70F3959FC1F3950FA5
:101B300050E0551F629FF001729FBB27F00DB11D51
:101B4000639FAA27F00DB11DAA1F649F6627B00DE1
:101B5000A11D661F829F2227B00DA11D621F739FCA
:101B6000B00DA11D621F839FA00D611D221F749FD8
:101B70003327A00D611D231F849F600D211D822F1F
:101B8000762F6A2F11249F5750409AF0F1F0882346
:101B90004AF0EE0FFF1FBB1F661F771F881F915073
:101BA0005040A9F79E3F510580F00C94290D0C94EC
:101BB000740D5F3FE4F3983ED4F38695779567956F
:101BC000B795F795E7959F5FC1F7FE2B880F911D9D
:101BD0009695879597F908950E94050D880B990BA6
:101BE000089597FB072E16F4009407D077FD09D0CF
:101BF0000E94270E07FC05D03EF4909581959F4FDB
:101C00000895709561957F4F0895A1E21A2EAA1B41
:101C1000BB1BFD010DC0AA1FBB1FEE1FFF1FA2179C
:101C2000B307E407F50720F0A21BB30BE40BF50B99
:101C3000661F771F881F991F1A9469F76095709522
:101C4000809590959B01AC01BD01CF010895AA1B21
:101C5000BB1B51E107C0AA1FBB1FA617B70710F097
:101C6000A61BB70B881F991F5A95A9F780959095C9
:101C7000BC01CD010895EE0FFF1F0590F491E02DFA
:061C80000994F894FFCF67
:101C860000000000000360028D024D03BE029C02AC
:101C9600B00200000000280560026E036D036E614D
:101CA6006E00696E66006F766600545F6F3A2000BC
:101CB600202A430053656E616C3A2000545F733AE4
:101CC6002000202A432000202509002C000D0A00B0
:00000001FF
