:100000000C944D010C9475010C9475010C947501C0
:100010000C9475010C9475010C9475010C94750188
:100020000C9475010C9475010C9475010C94750178
:100030000C9475010C9475010C9475010C94750168
:100040000C94B8050C9475010C9428060C940206C7
:100050000C9475010C9475010C9475010C94750148
:100060000C9475010C947501000000000000005F05
:1000700000000007000700147F147F14242A7F2A41
:10008000122313086462364955225000050300000C
:10009000001C2241000041221C0014083E081408E4
:1000A000083E0808005030000008080808080060F2
:1000B00060000020100804023E5149453E00427F86
:1000C000400042615149462141454B311814127F8D
:1000D0001027454545393C4A494930017109050316
:1000E0003649494936064949291E0036360000007E
:1000F0005636000008142241001414141414004150
:100100002214080201510906324979413E7E11113B
:10011000117E7F494949363E414141227F4141227A
:100120001C7F494949417F090909013E4149497AF2
:100130007F0808087F00417F41002040413F017F48
:10014000081422417F404040407F020C027F7F0420
:1001500008107F3E4141413E7F090909063E415159
:10016000215E7F09192946464949493101017F012C
:10017000013F4040403F1F2040201F3F4038403F4C
:100180006314081463070870080761514945430068
:100190007F41410002040810200041417F00040219
:1001A0000102044040404040000102040020545439
:1001B00054787F48444438384444442038444448C0
:1001C0007F3854545418087E0901020C5252523E92
:1001D0007F0804047800447D40002040443D007FB7
:1001E0001028440000417F40007C041804787C08FB
:1001F00004047838444444387C1414140808141453
:10020000187C7C080404084854545420043F44409B
:10021000203C4040207C1C2040201C3C4030403C86
:1002200044281028440C5050503C4464544C440022
:100230000836410000007F00000041360800100829
:100240000810080000000000000000002400270043
:100250002A0000000000250028002B0004040404EC
:100260000404040402020202020203030303030360
:10027000010204081020408001020408102001023D
:100280000408102000000008000201000003040719
:1002900000000000000000005A0611241FBECFEF2E
:1002A000D8E0DEBFCDBF11E0A0E0B1E0E2E8FBE1C5
:1002B00002C005900D92AE34B107D9F722E0AEE44A
:1002C000B1E001C01D92AA37B207E1F711E0CDE419
:1002D000D1E004C02197FE010E94B90DCC34D107B2
:1002E000C9F70E9499060C94BF0D0C94000090E091
:1002F000FC01EC57FD4F2491FC01E059FD4F349176
:10030000FC01E45AFD4FE491EE23C9F0222339F0B9
:10031000233001F1A8F4213019F1223029F1F0E065
:10032000EE0FFF1FEE5AFD4FA591B4918FB7F894D1
:10033000EC91611126C030953E233C938FBF089508
:100340002730A9F02830C9F0243049F78091800087
:100350008F7D03C0809180008F7780938000DFCFF6
:1003600084B58F7784BDDBCF84B58F7DFBCF809143
:10037000B0008F778093B000D2CF8091B0008F7D96
:10038000F9CF3E2BDACFCF93DF9390E0FC01E05919
:10039000FD4F2491845A9D4FFC0184918823D1F014
:1003A00090E0880F991FFC01E85BFD4FA591B49187
:1003B000FC01EE5AFD4FC591D49161110EC09FB75B
:1003C000F8948C91E22FE0958E238C932881E22380
:1003D000E8839FBFDF91CF9108958FB7F894EC9198
:1003E000E22BEC938FBFF6CF8E3008F08E508770E3
:1003F000806480937C0080917A00806480937A008E
:1004000080917A0086FDFCCF8091780090917900F0
:1004100008953FB7F89480918B0190918C01A09141
:100420008D01B0918E0126B5A89B05C02F3F19F014
:100430000196A11DB11D3FBFBA2FA92F982F882764
:10044000BC01CD01620F711D811D911D42E0660F3F
:10045000771F881F991F4A95D1F708958F929F9211
:10046000AF92BF92CF92DF92EF92FF920E94090269
:100470004B015C0184E6C82ED12CE12CF12C0E94AA
:100480000902681979098A099B09683E7340810548
:100490009105A8F321E0C21AD108E108F10888EE1D
:1004A000880E83E0981EA11CB11CC114D104E10484
:1004B000F10429F7FF90EF90DF90CF90BF90AF90BD
:1004C0009F908F900895AF92BF92CF92DF92EF925C
:1004D000FF920F931F93CF93DF936C017B018B01EE
:1004E000040F151FEB015E01AE18BF08C017D1073E
:1004F00059F06991D601ED91FC910190F081E02DC8
:10050000C6010995892B79F7C501DF91CF911F911C
:100510000F91FF90EF90DF90CF90BF90AF90089534
:10052000FC01538D448D252F30E0842F90E0821BF9
:10053000930B541710F0CF96089501970895FC017E
:10054000918D828D981761F0A28DAE0FBF2FB11DD6
:100550005D968C91928D9F5F9F73928F90E008952E
:100560008FEF9FEF0895FC01918D828D981731F0E8
:10057000828DE80FF11D858D90E008958FEF9FEF3C
:100580000895FC01918D228D892F90E0805C9F4F12
:10059000821B91098F73992708958FE891E00E943B
:1005A000C10221E0892B09F420E0822F089580E028
:1005B00090E0892B29F00E94CD0281110C9400005B
:1005C0000895FC01A48DA80FB92FB11DA35ABF4FE8
:1005D0002C91848D90E001968F739927848FA68942
:1005E000B7892C93A089B1898C91837080648C9396
:1005F000938D848D981306C00288F389E02D808145
:100600008F7D80830895EF92FF920F931F93CF9376
:10061000DF93EC0181E0888F9B8D8C8D98131AC03D
:10062000E889F989808185FF15C09FB7F894EE8924
:10063000FF896083E889F989808183708064808381
:100640009FBF81E090E0DF91CF911F910F91FF90CC
:10065000EF900895F62E0B8D10E00F5F1F4F0F7374
:100660001127E02E8C8D8E110CC00FB607FCFACF2F
:10067000E889F989808185FFF5CFCE010E94E102EA
:10068000F1CFEB8DEC0FFD2FF11DE35AFF4FF08200
:100690009FB7F8940B8FEA89FB8980818062CFCF66
:1006A000CF93DF93EC01888D8823B9F0AA89BB89A9
:1006B000E889F9898C9185FD03C0808186FD0DC094
:1006C0000FB607FCF7CF8C9185FFF2CF808185FFB5
:1006D000EDCFCE010E94E102E9CFDF91CF910895E5
:1006E000089590E080E00895FB0101900020E9F773
:1006F0003197AF01461B570BDC01ED91FC91028055
:10070000F381E02D09948F929F92AF92BF92EF9266
:10071000FF920F931F93CF93DF93CDB7DEB7A197CF
:100720000FB6F894DEBF0FBECDBF7C01FA01CB013E
:1007300019A2223008F42AE08E010F5D1F4F822E8D
:10074000912CB12CA12CBF01A50194010E94830D15
:10075000F901CA016A300CF5605DD8016E938D0114
:10076000232B242B252B79F790E080E0109721F0A4
:10077000BD01C7010E947403A1960FB6F894DEBFB5
:100780000FBECDBFDF91CF911F910F91FF90EF90E2
:10079000BF90AF909F908F900895695CDECFCF930C
:1007A000DF93BC018FE891E00E947403EC016EE1DD
:1007B00071E08FE891E00E9474038C0F9D1FDF9120
:1007C000CF9108950C9474032F923F924F925F92B1
:1007D0006F927F928F929F92AF92BF92CF92DF9251
:1007E000EF92FF921F93CF93DF93EC016A017B019D
:1007F000722EAB019601CB01B6010E946A0D61E237
:1008000071E0811126C046015701E894B7F82FEF37
:100810003FEF4FE75FE7C501B4010E946A0D811108
:100820000CC02FEF3FEF4FE75FE7C501B4010E9417
:10083000A00B65E271E0181664F02FEF3FEF4FE771
:100840005FE4C701B6010E94F80C1816B4F469E21F
:1008500071E0CE01DF91CF911F91FF90EF90DF907B
:10086000CF90BF90AF909F908F907F906F905F9050
:100870004F903F902F900C9474032FEF3FEF4FE772
:100880005FECC701B6010E94A00B87FDE0CF20E01E
:1008900030E0A901C701B6010E94A00B312C212C28
:1008A00087FF0DC0E881F9810190F081E02D6DE2B4
:1008B000CE0109951C01F7FAF094F7F8F09410E0D6
:1008C00060E070E080E09FE3711641F020E030E0EE
:1008D00040E251E40E94A50B1F5FF6CFA7019601ED
:1008E0000E94340B2B013C010E94170C4B015C0150
:1008F0002AE0BC01A401CE010E9483037C01E20C2A
:10090000F31C1123E1F1C501B4010E94460C9B01C7
:10091000AC01C301B2010E94330B4B015C01E881C1
:10092000F9810190F081E02D6EE2CE010995E80E8B
:10093000F91E115020F120E030E040E251E4C50101
:10094000B4010E94FD0C2B013C010E94170C4B01CD
:10095000B12CA12C2AE0B501A401CE010E94830391
:10096000E80EF91EC501B4010E94460C9B01AC01C2
:10097000C301B2010E94330B4B015C01DACFC70106
:10098000DF91CF911F91FF90EF90DF90CF90BF90BC
:10099000AF909F908F907F906F905F904F903F901F
:1009A0002F900895EF92FF920F931F93CF93DF93B1
:1009B000EC01042F8E810E94770160E088850E94FF
:1009C0007701FC80ED8018E0602F661F6627661FA8
:1009D0008E2D0E947701000F61E08F2D0E9477011C
:1009E00060E08F2D0E947701115071F761E08885DA
:1009F000DF91CF911F910F91FF90EF900C947701B1
:100A0000CF93DF93CCE2D2E01C8690E06B8529E3A4
:100A1000629F612D1124669570E06F5F7F4F0E9489
:100A20006F0D8D8740E860E0CE010E94D2044D85B5
:100A3000406460E0CE01DF91CF910C94D204CF935B
:100A4000DF9380E00E940005D0E0C0E08091370293
:100A500086958695869590913602899FC0011124CE
:100A6000C817D90740F440E061E08CE292E00E94B0
:100A7000D2042196EBCF80E0DF91CF910C9400055A
:100A8000CF92DF92EF92FF920F931F93CF93DF935A
:100A900000D000D01F92CDB7DEB767FD66C07C01E5
:100AA000862F90E0603208F44FC0809725E0289FA1
:100AB000B001299F700D112468597F4F45E050E027
:100AC000CE0101960E942A0B8E010F5F1F4F680115
:100AD00085E0C80ED11CF80141918F0161E0C7018A
:100AE0000E94D2040C151D05B1F740E061E0C7017A
:100AF0000E94D204F701848590E00696628570E03A
:100B00000E946F0D8487892B79F4858590E001968A
:100B1000638529E3629F612D1124669570E06F5F04
:100B20007F4F0E946F0D858781E090E00F900F90BE
:100B30000F900F900F90DF91CF911F910F91FF9029
:100B4000EF90DF90CF900895FC013796EE0FFF1FD6
:100B5000EE0DFF1D008111810115110509F0B7CFC0
:100B600045E050E068E670E0ABCF90E080E0DECF9B
:100B70001F920F920FB60F9211242F933F938F93D2
:100B80009F93AF93BF938091870190918801A0912B
:100B90008901B0918A013091860123E0230F2D371E
:100BA00058F50196A11DB11D209386018093870100
:100BB00090938801A0938901B0938A0180918B0161
:100BC00090918C01A0918D01B0918E010196A11D93
:100BD000B11D80938B0190938C01A0938D01B093F4
:100BE0008E01BF91AF919F918F913F912F910F9067
:100BF0000FBE0F901F90189526E8230F0296A11D97
:100C0000B11DD2CF1F920F920FB60F9211242F93C6
:100C10003F934F935F936F937F938F939F93AF9384
:100C2000BF93EF93FF938FE891E00E94E102FF9161
:100C3000EF91BF91AF919F918F917F916F915F9154
:100C40004F913F912F910F900FBE0F901F901895CD
:100C50001F920F920FB60F9211242F938F939F9391
:100C6000EF93FF93E0919F01F091A0018081E091CB
:100C7000A501F091A60182FD1BC090818091A80181
:100C80008F5F8F732091A901821741F0E091A80135
:100C9000F0E0E157FE4F958F8093A801FF91EF910F
:100CA0009F918F912F910F900FBE0F901F901895CD
:100CB0008081F4CFEFE8F1E01382128288EE93E0B6
:100CC000A0E0B0E084839583A683B78384E091E0BD
:100CD0009183808385EC90E09587848784EC90E015
:100CE0009787868780EC90E0918B808B81EC90E0F9
:100CF000938B828B82EC90E0958B848B86EC90E0DA
:100D0000978B868B118E128E138E148EECE2F2E08E
:100D10001382128286E191E09183808383E0848351
:100D200084E0858385E0868386E0878387E080870B
:100D30000895CF93DF93CDB7DEB72C970FB6F89415
:100D4000DEBF0FBECDBF789484B5826084BD84B50C
:100D5000816084BD85B5826085BD85B5816085BDB6
:100D600080916E00816080936E001092810080916E
:100D700081008260809381008091810081608093F6
:100D80008100809180008160809380008091B1001B
:100D900084608093B1008091B00081608093B00046
:100DA00080917A00846080937A0080917A008260DA
:100DB00080937A0080917A00816080937A0080919C
:100DC0007A00806880937A001092C10080E090E001
:100DD000A0EAB0E480934E0190934F01A09350019C
:100DE000B093510180E090E0A0E0B0E48093520124
:100DF00090935301A0935401B093550180E090E08B
:100E0000A0E8BFE38093560190935701A093580147
:100E1000B093590161E083E00E94C30161E084E086
:100E20000E94C30161E085E00E94C30161E086E0A9
:100E30000E94C30161E087E00E94C30161E08AE093
:100E40000E94C30161E088E00E94C30160E089E084
:100E50000E94C301109285011092840110928301B7
:100E6000109282011092620110926301109264014B
:100E70001092650110926E0110926F011092700134
:100E80001092710110926601109267011092680130
:100E90001092690110925A0110925B0110925C014C
:100EA00010925D0110926A0110926B0110926C0118
:100EB00010926D0184E58093360280E380933702BF
:100EC000109235021092380210923902EAE3F2E0F1
:100ED00080E4DF011D928A95E9F761E0809130029C
:100EE0000E94C30161E0809131020E94C30161E070
:100EF000809132020E94C30161E0809133020E941E
:100F0000C30161E0809134020E94C30161E08091DD
:100F100033020E94770161E0809134020E947701E0
:100F200060E0809133020E9477010E942E0261E00E
:100F3000809133020E94770141E260E08CE292E00E
:100F40000E94D20443E160E08CE292E00E94D2046D
:100F50008091350242EC813039F440EE60E08CE261
:100F600092E00E94D20445E060E08CE292E00E94B0
:100F7000D20440E260E08CE292E00E94D20449E0B8
:100F800060E08CE292E00E94D2040E941F0548E0DB
:100F900060E08CE292E00E94D2044CE060E08CE2DF
:100FA00092E00E94D2040E942E0240E860E08CE2AF
:100FB00092E00E94D20440E460E08CE292E00E9461
:100FC000D204E0919F01F091A00182E08083E09142
:100FD0009B01F0919C011082E0919D01F0919E0196
:100FE0008FEC80831092A701E091A301F091A401FE
:100FF00086E08083E091A101F091A201808180616F
:101000008083E091A101F091A201808188608083BA
:10101000E091A101F091A201808180688083E0913C
:10102000A101F091A20180818F7D80838EE00E94DA
:10103000F4012CE0AC01249FC001259F900D1124E8
:1010400068EE73E00E946F0D625E7F4F072E000C0A
:10105000880B990B0E94480C60937A0170937B0176
:1010600080937C0190937D01C12CD12C28ECE22E41
:1010700021E4F22EC0925A01D0925B01E0925C0111
:10108000F0925D01A70196010E94330B6B017C0178
:10109000C0925E01D0925F01E0926001F092610126
:1010A000209162013091630140916401509165018A
:1010B0000E94340B2B013C0140926201509263016B
:1010C000609264017092650120916E0130916F0110
:1010D0004091700150917101C701B6010E94330B1C
:1010E0004B015C018092660190926701A0926801B9
:1010F000B092690120914E0130914F014091500111
:1011000050915101C701B6010E94FD0C69837A8399
:101110008B839C8320915201309153014091540163
:1011200050915501C301B2010E94FD0C9B01AC011D
:1011300069817A818B819C810E94340B2B013C0157
:101140002091560130915701409158015091590119
:10115000C501B4010E94FD0C9B01AC01C301B201A9
:101160000E94340B4B015C0180926A0190926B01EA
:10117000A0926C01B0926D0120E030E04FE753E4A3
:101180000E94F80C18160CF031C280E090E0AFE736
:10119000B3E480936A0190936B01A0936C01B093C8
:1011A0006D01C0926E01D0926F01E0927001F092D9
:1011B000710180916A0190916B01A0916C01B091D5
:1011C0006D0180937E0190937F01A0938001B09385
:1011D00081011CE098EE292E93E0392E82E10E94D5
:1011E000F401909385018093840183E10E94F401CE
:1011F00090938301809382010E941F05C0907E011D
:10120000D0907F01E0908001F09081018FB7F89439
:1012100040918701509188016091890170918A0104
:101220008FBF8091720190917301A0917401B09170
:101230007501481B590B6A0B7B0B44365105610540
:10124000710508F4E5C18C599F4FAF4FBF4F809394
:10125000720190937301A0937401B093750120E023
:1012600030E040EA51E4C701B6010E94FD0C20E0E5
:1012700030E04FE753E40E94A50B20E030E048EC5B
:1012800052E40E94FD0C20E030E04AE754E40E9462
:10129000A50B20E030E040E251E40E94A50B2AE0DB
:1012A00037ED43E65FE30E94A50B20E030E048EC19
:1012B00051E40E94340B2B013C0140927E0150927C
:1012C0007F0160928001709281018EE00E94F401A2
:1012D000DC011A9FC0011B9F900D1124B1010E94D7
:1012E0006F0D625E7F4F072E000C880B990B0E94DA
:1012F000480C69837A838B839C8360937A01709313
:101300007B0180937C0190937D0140925A01509221
:101310005B0160925C0170925D01A30192010E94E9
:10132000330B6B017C01C0925E01D0925F01E092B1
:101330006001F0926101209162013091630140915E
:101340006401509165010E94340B4B015C01809255
:10135000620190926301A0926401B09265012091B4
:101360006E0130916F014091700150917101C70180
:10137000B6010E94330B6D837E838F8398876093C1
:1013800066017093670180936801909369012091D1
:101390004E0130914F014091500150915101C701D0
:1013A000B6010E94FD0C69877A878B879C87209104
:1013B0005201309153014091540150915501C501A2
:1013C000B4010E94FD0C9B01AC0169857A858B8577
:1013D0009C850E94340B4B015C0120915601309199
:1013E000570140915801509159016D817E818F8143
:1013F00098850E94FD0C9B01AC01C501B4010E94BF
:10140000340B4B015C0120E030E04FE753E40E94D5
:10141000F80C18160CF003C180E090E0AFE7B3E4DD
:1014200080936A0190936B01A0936C01B0936D015E
:10143000C0926E01D0926F01E0927001F092710142
:1014400020E030E04FE753E460916A0170916B0156
:1014500080916C0190916D010E94A50B20E030E01D
:1014600040EA52E40E94FD0C6B017C01C0927601BF
:10147000D0927701E0927801F09279018091840115
:1014800090918501892B09F44AC080E00E940005F3
:101490006DE271E08CE292E00E94E20322E0498179
:1014A0005A816B817C818CE292E00E94E40363E3C9
:1014B00071E08CE292E00E94E20381E00E9400056C
:1014C00067E371E08CE292E00E94E20322E0B70160
:1014D000A6018CE292E00E94E40364E371E08CE2F6
:1014E00092E00E94E20382E00E9400056FE371E057
:1014F0008CE292E00E94E20322E0B301A2018CE2BE
:1015000092E00E94E40365E471E08CE292E00E94C4
:10151000E2036AE471E08CE292E00E94E2038091CF
:10152000820190918301892B09F451C0C0907E0102
:10153000D0907F01E0908001F09081018090760151
:1015400090907701A0907801B090790140907A0155
:1015500050907B0160907C0170907D018FE891E05C
:101560000E94C10297FF33C06DE271E08FE891E005
:101570000E94E20322E0B301A2018FE891E00E9401
:10158000E40383E391E00E94CF0367E371E08FE817
:1015900091E00E94E20322E0B501A4018FE891E00E
:1015A0000E94E40384E391E00E94CF036FE371E0C3
:1015B0008FE891E00E94E20322E0B701A6018FE8E4
:1015C00091E00E94E40385E491E00E94CF030E9431
:1015D0002E0220E030E0232B09F400CE0E94CD0241
:1015E000882309F4FBCD0E940000F8CD20E030E014
:1015F000A901C501B4010E94A00B87FFD2CD1092B2
:101600006A0110926B0110926C0110926D01C9CDAC
:10161000412C512C88EC682E81E4782E4ECE20E0AF
:1016200030E0A901C501B4010E94A00B87FD09C0EB
:1016300080926A0190926B01A0926C01B0926D0150
:10164000F7CE10926A0110926B0110926C01109209
:101650006D01EECEFB01DC0102C005900D92415000
:101660005040D8F708955058BB27AA270E944B0B2B
:101670000C94BE0C0E94B00C38F00E94B70C20F005
:1016800039F49F3F19F426F40C94AD0C0EF4E09558
:10169000E7FB0C94A70CE92F0E94CF0C58F3BA1764
:1016A000620773078407950720F079F4A6F50C9478
:1016B000F10C0EF4E0950B2EBA2FA02D0B01B90101
:1016C00090010C01CA01A0011124FF27591B99F0B8
:1016D000593F50F4503E68F11A16F040A22F232FC4
:1016E000342F4427585FF3CF469537952795A79514
:1016F000F0405395C9F77EF41F16BA0B620B730BBB
:10170000840BBAF09150A1F0FF0FBB1F661F771F2B
:10171000881FC2F70EC0BA0F621F731F841F48F4E0
:10172000879577956795B795F7959E3F08F0B0CF69
:101730009395880F08F09927EE0F97958795089550
:101740000E94830C08F481E008950E94B90B0C9468
:10175000BE0C0E94B70C58F00E94B00C40F029F467
:101760005F3F29F00C94A70C51110C94F20C0C94CF
:10177000AD0C0E94CF0C68F39923B1F3552391F37C
:10178000951B550BBB27AA2762177307840738F0F0
:101790009F5F5F4F220F331F441FAA1FA9F335D04D
:1017A0000E2E3AF0E0E832D091505040E695001C01
:1017B000CAF72BD0FE2F29D0660F771F881FBB1FBB
:1017C000261737074807AB07B0E809F0BB0B802D99
:1017D000BF01FF2793585F4F3AF09E3F510578F0C5
:1017E0000C94A70C0C94F20C5F3FE4F3983ED4F3F6
:1017F000869577956795B795F7959F5FC9F7880F99
:10180000911D9695879597F90895E1E0660F771FEA
:10181000881FBB1F621773078407BA0720F0621B7B
:10182000730B840BBA0BEE1F88F7E09508950E94A6
:10183000D70C88F09F5798F0B92F9927B751B0F07F
:10184000E1F0660F771F881F991F1AF0BA95C9F744
:1018500014C0B13091F00E94F10CB1E008950C94E5
:10186000F10C672F782F8827B85F39F0B93FCCF398
:10187000869577956795B395D9F73EF490958095C1
:10188000709561957F4F8F4F9F4F0895E89409C0E1
:1018900097FB3EF490958095709561957F4F8F4FA3
:1018A0009F4F9923A9F0F92F96E9BB279395F695B9
:1018B000879577956795B795F111F8CFFAF4BB0F37
:1018C00011F460FF1BC06F5F7F4F8F4F9F4F16C09B
:1018D000882311F096E911C0772321F09EE8872F25
:1018E000762F05C0662371F096E8862F70E060E0E1
:1018F0002AF09A95660F771F881FDAF7880F96955A
:10190000879597F90895990F0008550FAA0BE0E8FD
:10191000FEEF16161706E807F907C0F012161306B1
:10192000E407F50798F0621B730B840B950B39F4F1
:101930000A2661F0232B242B252B21F408950A2657
:1019400009F4A140A6958FEF811D811D089597F997
:101950009F6780E870E060E008959FEF80EC089555
:1019600000240A941616170618060906089500247E
:101970000A9412161306140605060895092E0394F8
:10198000000C11F4882352F0BB0F40F4BF2B11F46C
:1019900060FF04C06F5F7F4F8F4F9F4F089557FDCB
:1019A0009058440F551F59F05F3F71F04795880FCD
:1019B00097FB991F61F09F3F79F087950895121664
:1019C00013061406551FF2CF4695F1DF08C0161610
:1019D00017061806991FF1CF8695710561050894C1
:1019E0000895E894BB2766277727CB0197F90895D8
:1019F0000E94830C08F48FEF08950E94100D0C9440
:101A0000BE0C0E94B00C38F00E94B70C20F0952359
:101A100011F00C94A70C0C94AD0C11240C94F20C46
:101A20000E94CF0C70F3959FC1F3950F50E0551FA6
:101A3000629FF001729FBB27F00DB11D639FAA2723
:101A4000F00DB11DAA1F649F6627B00DA11D661F72
:101A5000829F2227B00DA11D621F739FB00DA11D93
:101A6000621F839FA00D611D221F749F3327A00D4D
:101A7000611D231F849F600D211D822F762F6A2FE9
:101A800011249F5750409AF0F1F088234AF0EE0F4E
:101A9000FF1FBB1F661F771F881F91505040A9F77B
:101AA0009E3F510580F00C94A70C0C94F20C5F3F04
:101AB000E4F3983ED4F3869577956795B795F795B7
:101AC000E7959F5FC1F7FE2B880F911D969587952F
:101AD00097F908950E94830C880B990B089597FB42
:101AE000072E16F4009407D077FD09D00E94A50DAB
:101AF00007FC05D03EF4909581959F4F0895709511
:101B000061957F4F0895A1E21A2EAA1BBB1BFD0110
:101B10000DC0AA1FBB1FEE1FFF1FA217B307E407CC
:101B2000F50720F0A21BB30BE40BF50B661F771F24
:101B3000881F991F1A9469F7609570958095909504
:101B40009B01AC01BD01CF010895AA1BBB1B51E154
:101B500007C0AA1FBB1FA617B70710F0A61BB70B1D
:101B6000881F991F5A95A9F780959095BC01CD01C2
:101B70000895EE0FFF1F0590F491E02D0994F8945D
:021B8000FFCF95
:101B8200000000000303630290025003C1029F029F
:101B9200B3020000000040056302710370030D0AE6
:101BA200006E616E00696E66006F766600545F6F4C
:101BB2003A2000202A430053656E616C3A2000549B
:0E1BC2005F733A2000202A43200020250900EE
:00000001FF
